:1000000005C100000C944E340C9479340C94A43443
:100010000C94CF340C94FA340C9425350C94503550
:100020000C947B3524C1000022C1000020C10000D7
:100030001EC100001CC100001AC1000018C1000050
:1000400016C1000014C1000012C1000010C1000060
:100050000EC100000CC100000AC100000C94A635BE
:1000600006C100000C94A2390C94D83900C10000DC
:10007000FEC00000FCC00000FAC00000F8C0000094
:10008000F6C00000F4C00000F2C00000F0C00000A4
:100090000C942E3A0C94643AEAC00000E8C00000C8
:1000A000E6C00000E4C00000E2C00000E0C00000C4
:1000B000DEC00000DCC00000DAC00000D8C00000D4
:1000C000D6C00000D4C000000C944C2F0C94BA3A57
:1000D0000C94F03ACCC000000C94463B0C947C3B52
:1000E000C6C0000000000A0B02090C0D0E08070331
:1000F00004010000000000000000000000000000FB
:1001000000000000000000000000000000000000EF
:1001100012111000000000000000000000000000AC
:100120000000000000000000000001021020200874
:100130000810204010204080020102010804020142
:1001400001020408102040808040201008040201B1
:10015000800402018040201008040201080402010A
:100160000102040810204080010204081020408091
:1001700005050505070508080808020202020A0A23
:100180000808040404040101010101010101030341
:10019000030303030303040707070C0C0C0C0C0CEC
:1001A0000C0C0202020206060606060606060B0BE9
:1001B0000B0B0B0B0B0B000020002300260029006B
:1001C0002C002F003200000100000301060109018C
:1001D00000002200250028002B002E0031003400F2
:1001E00002010000050108010B01000021002400AC
:1001F00027002A002D003000330001010000040117
:1002000007010A01013A8D3A193BA53B11241FBE93
:10021000CFEFD1E2DEBFCDBF00E00CBF13E0A0E026
:10022000B2E0E0EFF8E700E00BBF02C007900D92EC
:10023000A235B107D9F729E0A2E5B3E001C01D92CC
:10024000AD3DB207E1F711E0C6E0D1E000E006C045
:1002500021970109802FFE010E94453CC230D10741
:1002600080E00807A9F70E943E300C94763CC8CE87
:10027000611102C00C94E7376130E1F362E0FACF1C
:10028000662319F061E00C94233860E0FCCFCF9234
:10029000DF92EF92FF92CF93882351F16A017B01A5
:1002A000CFEFC80F20E030E0A901CB01B6010E94DA
:1002B000463118168CF0C701B60190580E94B7312C
:1002C0009B01AC016C2F70E090E080E0CF91FF903B
:1002D000EF90DF90CF90B2C0C701B6010E94B2315B
:1002E0008C2FCF91FF90EF90DF90CF900C94AD3694
:1002F000CF91FF90EF90DF90CF9008950F931F93D1
:100300008B019C0183E036952795179507958A9573
:10031000D1F70E5A1C4F462F477021E030E0F9010B
:1003200002C0EE0FFF1F4A95E2F7AF01F8012081EE
:100330002423CB010196211102C090E080E01F919F
:100340000F9108950F931F938B019C0183E03695C5
:100350002795179507958A95D1F7677081E090E00A
:1003600001C0880F6A95EAF7F801EE5AFC4F208128
:10037000452B31F48095822380831F910F9108953E
:10038000822BFACF2F923F924F925F926F927F9281
:100390008F929F92AF92BF92CF92DF92EF92FF9295
:1003A0000F931F93CF93DF93D62EC72E782E692EEF
:1003B00049015A01280161E08D2D0E94E737CD2DBA
:1003C000DC2D8E010F5F1F4FA8016D2D7C2D872D19
:1003D000962DB8DF20E030E0A901C201B7010E94EC
:1003E0003633181664F4C201B7010E94B7312B01ED
:1003F000C501B4010E94B731A201CE0123D0C801CA
:10040000DF91CF911F910F91FF90EF90DF90CF90F0
:10041000BF90AF909F908F907F906F905F904F9024
:100420003F902F900895882341F08150682F70E00D
:1004300090E080E050E040E085CF0895862FB9013C
:100440000C94AD369C01FC01EC51FF4FE491E1505E
:10045000E231E0F4F0E08827EF5CFD4F8F4F0C9421
:10046000453C43024A024D026402790246028E0272
:100470009A029E02B502CA02DF02F6020B0346028E
:10048000200337034C0384B5806884BD60E0822F6D
:100490000C94233884B58062F8CF809180008C7FE3
:1004A00082608093800080918100807E8061682BD3
:1004B0006093810050938700409386008091800074
:1004C000806880938000E2CF809180008C7F826082
:1004D0008093800080918100807E8061682B609392
:1004E0008100509387004093860080918000806255
:1004F000E8CF809180008C7F826080938000809123
:100500008100807E8061682B60938100509387001A
:1005100040938600809180008860D3CF8091B000A6
:1005200080688093B0008091B100887F682B6093D1
:10053000B100ACCF8091B0008062F3CF8091900089
:100540008C7F82608093900080919100807E80619A
:10055000682B609391005093970040939600809190
:10056000900080688093900091CF809190008C7F64
:1005700082608093900080919100807E8061682BE2
:100580006093910050939700409396008091900063
:100590008062E8CF809190008C7F82608093900091
:1005A00080919100807E8061682B609391005093D0
:1005B000970040939600809190008860D3CF8091FF
:1005C000A0008C7F82608093A0008091A100807E3B
:1005D0008061682B6093A1005093A7004093A60010
:1005E0008091A00080688093A00050CF8091A000EF
:1005F0008C7F82608093A0008091A100807E8061CA
:10060000682B6093A1005093A7004093A6008091AF
:10061000A0008062E8CF8091A0008C7F82608093F0
:10062000A0008091A100807E8061682B6093A10072
:100630005093A7004093A6008091A0008860D3CF7C
:10064000809120018C7F8260809320018091210124
:10065000807E8061682B6093210150932701409335
:100660002601809120018068809320010FCF809126
:1006700020018C7F82608093200180912101807E07
:100680008061682B609321015093270140932601DC
:10069000809120018062E8CF809120018C7F826070
:1006A0008093200180912101807E8061682B60937E
:1006B00021015093270140932601809120018860F9
:1006C000D3CFCF93DF93EC0170E060E06C177D0730
:1006D0000CF5072E000C880B990B0E94E53120E0E9
:1006E00030E0A9010E94CF3020E030E0A9010E9453
:1006F000CF3020E030E040E450E40E94CF3020E0F2
:1007000030E040E450E40E94CE300E94B2316F5F8E
:100710007F4FDCCFDF91CF910895CF93DF9380910E
:100720006B0390916C030E945038EC01809171032F
:1007300090917203C6DF80916D0390916E030E94C9
:100740005038019771F480916F0390917003219755
:1007500071F401969093700380936F03DF91CF91B2
:10076000089580916F0390917003CD2B91F30197C1
:10077000F1CFCF93DF9380916303909164030E9444
:100780005038EC018091690390916A039ADF80915F
:100790006503909166030E945038019771F480912F
:1007A000670390916803219771F401969093680311
:1007B00080936703DF91CF910895809167039091B3
:1007C0006803CD2B91F30197F1CFCF93DF93809105
:1007D0005B0390915C030E945038EC0180916103AF
:1007E000909162036EDF80915D0390915E030E94A1
:1007F0005038019771F480915F03909160032197C5
:1008000071F401969093600380935F03DF91CF9121
:10081000089580915F0390916003CD2B91F3019730
:10082000F1CFCF93DF9380916503909166030E948F
:100830005038EC018091690390916A0342DF809106
:100840006303909164030E945038019771F4809182
:10085000670390916803CD2B71F401969093680320
:1008600080936703DF91CF91089580916703909102
:100870006803219791F30197F1CFCF93DF93809194
:100880005D0390915E030E945038EC0180916103FA
:100890009091620316DF80915B0390915C030E944C
:1008A0005038019771F480915F0390916003CD2BD4
:1008B00071F401969093600380935F03DF91CF9171
:1008C000089580915F0390916003219791F30197C0
:1008D000F1CFCF93DF9380916D0390916E030E94CF
:1008E0005038EC018091710390917203EADE80919F
:1008F0006B0390916C030E945038019771F48091C2
:100900006F0390917003CD2B71F401969093700357
:1009100080936F03DF91CF91089580916F03909141
:100920007003219791F30197F1CF0F931F93CF930A
:10093000DF938C01EC0183E0CC0FDD1F8A95E1F79A
:10094000C55ADC4F798368835B834A8388819981A8
:1009500060E00E94E7378A819B8160E00E94E73770
:100960008881998161E00E9423388A819B8161E0BE
:100970000E94233801301105D9F10230110509F424
:1009800066C0012B09F092C080915B0390915C03DB
:1009900002978431910530F587569D4FFC01808187
:1009A000082E000C990B41E050E06DE374E00E94CA
:1009B000D43380915D0390915E0302978431910559
:1009C000A0F487569D4FFC018081082E000C990BE6
:1009D00041E050E065EE73E0DF91CF911F910F9100
:1009E0000C94D4338FEF9FEFDECF8FEF9FEFF0CFDC
:1009F000809163039091640302978431910508F517
:100A000087569D4FFC018081082E000C990B41E018
:100A100050E061E174E00E94D433809165039091CD
:100A2000660302978431910578F487569D4FFC0147
:100A30008081082E000C990B41E050E069EB73E0D7
:100A4000CBCF8FEF9FEFE3CF8FEF9FEFF5CF80916D
:100A50006B0390916C0302978431910508F58756DA
:100A60009D4FFC018081082E000C990B41E050E065
:100A700069E674E00E94D43380916D0390916E0317
:100A800002978431910578F487569D4FFC0180814F
:100A9000082E000C990B41E050E06DE873E09CCF0C
:100AA0008FEF9FEFE3CF8FEF9FEFF5CFDF91CF91E8
:100AB0001F910F91089523E0880F991F2A95E1F760
:100AC000FC01E55AFC4F84819581089590E080E017
:100AD00008950F931F93009709F489C0611571055C
:100AE00009F485C0009160021091610220916202B8
:100AF000309163020E3F1F4F2F4F3F4F09F068C0E8
:100B00004FEF5FEFBA014093600250936102609330
:100B100062027093630240916002509161026091A1
:100B2000620270916302DC011296ED91FC9180816A
:100B30009181A281B3818093730490937404A093F4
:100B40007504B093760484819581A681B7818093E2
:100B50006F0490937004A0937104B0937204808525
:100B60009185A285B38580936B0490936C04A093C8
:100B70006D04B0936E0484859585A685B7858093B2
:100B8000670490936804A0936904B0936A04109278
:100B900063041092640410926504109266040E942B
:100BA000301385E593E190937403809373039093DE
:100BB0007603809375030E941F12009731F421E0A1
:100BC00030E030937804209377041F910F910895BB
:100BD00000916002109161022091620230916302E3
:100BE000DB010D931D932D933C93139794CF8FEFBF
:100BF0009FEFEBCF8F929F92AF92BF92CF92DF92F7
:100C0000EF92FF921F93CF93DF934B015C01109102
:100C10007A0482E090E090937804809377048114C2
:100C20009104A104B10441F480917A04811104C0BB
:100C300080917904C1E08111C0E0C12CD12C7601F2
:100C400080917A04811106C080917904811102C0DB
:100C5000CC23D9F083E090E09093780480937704DC
:100C6000CC2381F1CCE9DFEF111102C00E94BA164A
:100C7000CE01DF91CF911F91FF90EF90DF90CF9049
:100C8000BF90AF909F908F9008956AE070E080E0F1
:100C900090E00E94153680E1C80E87E2D81EE11C64
:100CA000F11C8FEF88169806A806B80631F0C1E04F
:100CB0008C149D04AE04BF0408F0C0E080E00E94E4
:100CC0005312BECFD0E0C0E0CFCFCF92DF92EF92F1
:100CD000FF920F931F93CF93DF938F3F910511F0F6
:100CE00008F051C020917704309178042330310509
:100CF00039F020917704309178042130310531F4B6
:100D000024E030E030937804209377046A017B017B
:100D1000EC0182309105A8F011E0AE01C701B601E7
:100D20000E941E12AB01BC01CE011123F9F0DF912C
:100D3000CF911F910F91FF90EF90DF90CF900C9487
:100D4000E3188C01000F111F0D581C4FD8018D9115
:100D50009C91892B09F30E94ED180297E9F6D801BE
:100D6000ED91FC91CE011995182FD7CF0E9405194E
:100D700090E080E0DF91CF911F910F91FF90EF9075
:100D8000DF90CF9008958FEF9FEFF4CF80E00C9429
:100D90005312CF93DF9386E090E090937804809392
:100DA00077040E94AC12EC01E3E7F3E084E0DF019A
:100DB0001D928A95E9F70E945216109278041092BB
:100DC0007704CE01DF91CF91089580917904089541
:100DD0008091620408956093600270936102809331
:100DE00062029093630290E080E008952F923F9218
:100DF0004F925F926F927F928F929F92AF92BF922B
:100E0000CF92DF92EF92FF920F931F93CF93DF93D6
:100E100000D01F92CDB7DEB78B015C834B83FB0103
:100E2000E150F04CEE0FFF1FEE0FFF1FE80FF91F10
:100E3000408151816281738177FD27C04C01B12CC3
:100E4000A12CC12CD12C7601A016B10664F5F401B9
:100E500061917191819191914F010E94E3314B8198
:100E60005C810E943C339B01AC01C701B6010E942A
:100E7000CF306B017C012B813C81205E3F4F3C8356
:100E80002B833FEFA31AB30ADFCF9A838983312CD8
:100E9000212C81E090E0A0E0B0E0C12CD12C7601C3
:100EA00020163106CCF0C701B6010F900F900F90BD
:100EB0000F90DF91CF911F910F91FF90EF90DF90F6
:100EC000CF90BF90AF909F908F907F906F905F90EA
:100ED0004F903F902F900895E981FA814190519071
:100EE00061907190FA83E983409450946094709477
:100EF00053014201880E991EAA1EBB1EC501B401F2
:100F00000E94E3314B815C810E943C339B01AC0128
:100F1000C701B6010E94CE306B017C0181E08414D0
:100F20009504A604B70408F080E090E0B0E0A0E0EB
:100F30002B813C81205E3F4F3C832B833FEF231A64
:100F4000330AAECF2F923F924F925F926F927F9271
:100F50008F929F92AF92BF92CF92DF92EF92FF92C9
:100F60000F931F93CF93DF93CDB7DEB7CB54D10947
:100F70000FB6F894DEBF0FBECDBF26967FAF6EAF23
:100F8000269728965FAF4EAF28973E8B2D8B2C96D9
:100F9000FFAEEEAE2C97FB01E150F04CEE0FFF1FC1
:100FA000EE0FFF1FE80FF91F80809180A280B380B1
:100FB0008F8A988EA98EBA8EB501A401442777FD39
:100FC000439555276627772729964FAF2997F9012B
:100FD000E150F04CEE0FFF1FEE0FFF1F2896AEAC56
:100FE000BFAC2897EA0DFB1DC080D180E280F38062
:100FF000CB8EDC8EED8EFE8EB701A601442777FDE9
:1010000043955527662777272A964FAF2A97188B3F
:101010000F87F80130E020E02C96EEACFFAC2C9767
:101020002E153F050CF43FC022969FAF8EAF22973E
:101030001A8B098B312C212C812C912C54018394F7
:101040008D829E82AF82B88626968EAC9FAC269704
:10105000281439047CF129969FAC29972A96AFACC5
:101060002A9730E020E041E050E060E070E09A1024
:10107000F5C1C55BDF4F0FB6F894DEBF0FBECDBF25
:10108000DF91CF911F910F91FF90EF90DF90CF9064
:10109000BF90AF909F908F907F906F905F904F9098
:1010A0003F902F90089511921192119211922F5FFB
:1010B0003F4FB2CF2296EEADFFAD22978191919135
:1010C000A191B1912296FFAFEEAF22978F88988CB5
:1010D000A98CBA8CB7FE23C04D815E816F81788563
:1010E00041505109610971095A016B01A81AB90AE5
:1010F000CA0ADB0AD601C50121E0CD80DE80EF807F
:10110000F8848C159D05AE05BF0508F020E0822E01
:10111000912CB12CA12C8D829E82AF82B8865D016C
:10112000CC24DD24A8A2B9A2CAA2DBA29C01AD01F5
:10113000442755272CA33DA34EA35FA32C96EEADC9
:10114000FFAD2C97E219F3098D889E888E169F06B5
:101150000CF4F4012896AEACBFAC28972496BFAE31
:10116000AEAE2497C988DA88DC8ACB8A1E861D86B3
:10117000812C912C5401839489869A86AB86BC86F7
:10118000812C912C5401CD84DE84CE16DF0604F12F
:10119000F7FF02C0F0E0E0E0E20DF31D2C96EEACAC
:1011A000FFAC2C97EE15FF0554F4EE0FFF1FEE0F6A
:1011B000FF1FE00FF11F80829182A282B3822FEF86
:1011C000221A320AE989FA893496FA8BE98B3CCFE4
:1011D0002496AEADBFAD2497CD90DD90ED90FD90FF
:1011E0002496BFAFAEAF24972B8D3C8D4D8D5E8D79
:1011F00057FF22C089859A85AB85BC850197A109D7
:10120000B109AC01BD014C195D096E097F096A0184
:101210007B0181E029853A854B855C85C216D30622
:10122000E406F50608F080E0482F50E070E060E04A
:1012300049875A876B877C87B7018827992768A7D2
:1012400079A78AA79BA7EE24FF2428A139A14AA148
:101250005BA1C701B6010E94003C2B013C012CA1FF
:101260003DA14EA15FA168A579A58AA59BA50E9475
:10127000003C6CA77DA78EA79FA7AB89BC894D9129
:101280005D916D917D91BC8BAB8BDB01CA01880DAB
:10129000991DAA1DBB1D89839A83AB83BC8391E0F2
:1012A0009F8F29813A814B815C81281539054A0538
:1012B0005B0508F01F8E2CA13DA14EA15FA1C701C7
:1012C000B6010E94003C6B017C0189809A80AB8052
:1012D000BC808C0C9D1CAE1CBF1C89829A82AB8288
:1012E000BC8252019924882488AA99AAAAAABBAAD6
:1012F00029813A814B815C81280D391D4A1D5B1D76
:101300002CAB3DAB4EAB5FAB8CA49DA4AEA4BFA4F5
:1013100054019924882488AE99AEAAAEBBAE280D9C
:10132000391D4A1D5B1D2CAF3DAF4EAF5FAFAB8982
:10133000BC8914972D933D934D935C93139728A1EB
:1013400039A14AA15BA168A579A58AA59BA50E94A0
:10135000003C9F8C690D711D811D911D2301662428
:101360007724460E571E681E791E2CA53DA54EA556
:101370005FA54A01AA24BB24840C951CA61CB71C9B
:1013800081E090E0A0E0B0E049815A816B817C81EE
:101390004C155D056E057F0518F080E090E0DC01DE
:1013A000880D991DAA1DBB1D41E050E060E070E072
:1013B00088A899A8AAA8BBA8CCA8DDA8EEA8FFA8D1
:1013C000C814D904EA04FB0418F040E050E0BA0164
:1013D000840F951FA61FB71F812C912C5401839455
:1013E000C8ACD9ACEAACFBAC2CAD3DAD4EAD5FADFD
:1013F0002C153D054E055F0518F0812C912C5401EC
:10140000880E991EAA1EBB1E4D855E854F5F5F4FDD
:101410005E874D87B8CEEF85F889C190D190E19075
:10142000F190F88BEF87DB01CA010197A109B1099F
:101430008C199D09AE09BF09349780839183A283DB
:10144000B383E1E084179507A607B70708F0E0E04B
:101450004E2F50E070E060E02F5F3F4F2C968EAC37
:101460009FAC2C9728153905B4F203CECF92DF92AA
:10147000EF92FF926B017C019F7720E030E040E823
:1014800059E50E94463187FF2BC020E030E040E064
:101490005FE3C701B6010E94363387FD0EC020E02E
:1014A00030E040E05FE3C701B6010E94CF30FF901B
:1014B000EF90DF90CF900C94203220E030E040E0BD
:1014C0005FEBC701B6010E943633181684F420E0A2
:1014D00030E0A901C701B6010E9470336B017C01A5
:1014E000C701B601FF90EF90DF90CF90089520E004
:1014F00030E040E05FE3C701B6010E94CE30FF90CC
:10150000EF90DF90CF900C9433312F923F924F9217
:101510005F926F927F928F929F92AF92BF92CF9283
:10152000DF92EF92FF920F931F93CF93DF93CDB78C
:10153000DEB76E970FB6F894DEBF0FBECDBFC0907A
:101540002402D0902502E0902602F0902702A70105
:1015500096016091430970914409809145099091E9
:1015600046090E944631882341F0C0924309D09237
:101570004409E0924509F092460981E090E09BDA47
:10158000409158025091590260915A0270915B0249
:101590004D875E876F87788B092E000CAA0BBB0BDB
:1015A00089879A87AB87BC8722E0E22EF12C8E01D7
:1015B0000F5F1F4F21E030E0AE01475F5F4F61E0FA
:1015C00070E0CE010D96BEDC34E0E32EF12C0FE886
:1015D00019E022E030E0AE014F5F5F4F62E070E063
:1015E00088E492E0AFDC50E040E064E070E0C801E5
:1015F000FDDB20E030E040E85CE00E9470331B013E
:101600002C012092AF093092B0094092B10950925A
:10161000B209E0913C04F0913D0480809180A28069
:10162000B3806090690970906A09C0906B09D0908E
:101630006C09A5019401B301C6010E94363387FDF0
:101640000EC0A50194016091710970917209809199
:101650007309909174090E94363387FFDEC1E090D0
:101660007109F09072090091730910917409970142
:10167000A801B301C6010E944631A501940187FF6C
:10168000BDC1B701C8010E94463187FDBDC120918F
:101690006D0930916E0940916F0950917009730185
:1016A0008601C201B1010E94CE302B013C0197019D
:1016B000A801C501B4010E94CE309B01AC01C30159
:1016C000B2010E944A316B8F7C8F8D8F9E8FC090AC
:1016D0002002D0902102E0902202F0902302A70184
:1016E000960160914D0970914E0980914F0990913A
:1016F00050090E944631882341F0C0924D09D09292
:101700004E09E0924F09F092500990E080E0D3D961
:1017100040915C0250915D0260915E0270915F02A7
:101720004D875E876F87788B092E000CAA0BBB0B49
:1017300089879A87AB87BC8782E0E82EF12C8E01DF
:101740000F5F1F4F21E030E0AE01475F5F4F61E068
:1017500070E0CE010D96F6DB94E0E92EF12C0FE956
:1017600019E022E030E0AE014F5F5F4F62E070E0D1
:1017700080E592E0E7DB50E040E064E070E0C80123
:1017800035DB20E030E040E85CE00E9470336B0124
:101790007C01C092B309D092B409E092B509F092ED
:1017A000B6091091790900917A0930907B0920904F
:1017B0007C09A5019401612F702F832D922D0E9429
:1017C000363387FD0EC0A5019401609181097091A7
:1017D000820980918309909184090E94363387FFA2
:1017E00032C180918109898B909182099D8BA09152
:1017F0008309A98FB0918409BA8F9C01AD01612F33
:10180000702F832D922D0E944631A501940187FFF0
:1018100009C169897D89898D9A8D0E94463187FD2C
:1018200009C140907D0950907E0960907F097090B9
:101830008009198B0D8B398E2A8E29893D89498D16
:101840005A8DC501B4010E94CE304B015C01A30149
:101850009201C701B6010E94CE30A50194010E94F9
:101860004A31698B7A8B8B8B9C8B8090280290906D
:101870002902A0902A02B0902B02209110023091F0
:10188000110240911202509113026091AF097091C0
:10189000B0098091B1099091B2090E94CE30A501A2
:1018A00094010E9470332091000230910102409116
:1018B0000202509103020E9470336D8B7E8B8F8BDE
:1018C000988F209114023091150240911602509188
:1018D00017026B8D7C8D8D8D9E8D0E94CE30A50163
:1018E00094010E94703320910402309105024091CE
:1018F0000602509107020E9470339B01AC016D8972
:101900007E898F89988D0E94CF302B013C012091D8
:1019100018023091190240911A0250911B02C7011E
:10192000B6010E94CE30A50194010E94703320912F
:1019300008023091090240910A0250910B020E9464
:1019400070339B01AC01C301B2010E94CF302B0167
:101950003C0120911C0230911D0240911E025091C9
:101960001F0269897A898B899C890E94CE30A501E2
:1019700094010E94703320910C0230910D0240912D
:101980000E0250910F020E9470339B01AC01C30103
:10199000B2010E94CF306093B7097093B809809369
:1019A000B9099093BA0920912C0230912D024091EF
:1019B0002E0250912F020E9470334B015C018092E5
:1019C000BB099092BC09A092BD09B092BE0940909B
:1019D0003002509031026090320270903302A301C5
:1019E00092010E94363318169CF54092BB09509222
:1019F000BC096092BD097092BE093AC0B301C6012C
:101A00000E94363387FD43CE2091750930917609C7
:101A1000409177095091780944CE1B8E1C8E1D8E03
:101A20001E8E55CE612F702F832D922D0E9436333E
:101A300087FDF7CE40908509509086096090870910
:101A400070908809FACE198A1A8A1B8A1C8A0DCFCF
:101A50004090340250903502609036027090370208
:101A6000A3019201C501B4010E94463187FDBDCF9B
:101A7000A7019601609138027091390280913A0273
:101A800090913B020E9470336093BF097093C0092C
:101A90008093C1099093C20920914402309145027C
:101AA00040914602509147026091BB097091BC0978
:101AB0008091BD099091BE090E94363318160CF032
:101AC00037C1C0903C02D0903D02E0903E02F090C1
:101AD0003F0211E020E030E0A901C701B6010E94F9
:101AE0004631811110E0612F88E00E944001C7015A
:101AF000B601BCDC6B017C0120E030E040E853E43F
:101B00000E9446316FEF87FF0EC020E030E0A90150
:101B1000C701B6010E94363360E087FD04C0C701EB
:101B2000B6010E94B73187E00E94400166E070E094
:101B300080E090E00E947E0190936809809367099D
:101B40006091BB097091BC098091BD099091BE095B
:101B50009F770E9420326B017C016DD3882309F4AA
:101B6000F0C070E060E0072E000C880B990B0E941B
:101B7000E531AB01BC0180916709909168090E9431
:101B800047018091690990916A09A0916B09B09110
:101B90006C09898B9A8BAB8BBC8BC090CB09D09096
:101BA000CC09E090CD09F090CE09A7019601BC01C7
:101BB000CD010E94463100913C0410913D048111F9
:101BC000D7C0F80180819181A281B3818093690996
:101BD00090936A09A0936B09B0936C09EDE6F9E064
:101BE0008091AF099091B009A091B109B091B2096B
:101BF00080839183A283B3838091790990917A093C
:101C0000A0917B09B0917C09898B9A8BAB8BBC8BA3
:101C10009C01AD01C701B6010E944631D8018D90EB
:101C20009D90AD90BC908111D6C080927909909220
:101C30007A09A0927B09B0927C09EDE7F9E08091E6
:101C4000B3099091B409A091B509B091B609808308
:101C50009183A283B3834091290450912A04609117
:101C60002B0470912C0490E080E02FD84091310437
:101C700050913204609133047091340481E090E01B
:101C800024D86091290470912A0480912B049091AA
:101C90002C046F5F7F4F8F4F9F4F60932904709389
:101CA0002A0480932B0490932C0400913C041091FF
:101CB0003D040E94E3319B01AC0160912D047091C1
:101CC0002E0480912F04909130040E947033F8010B
:101CD0006083718382839383809131049091320475
:101CE000A0913304B09134040196A11DB11D8093DD
:101CF000310490933204A0933304B09334046E966D
:101D00000FB6F894DEBF0FBECDBFDF91CF911F910C
:101D10000F91FF90EF90DF90CF90BF90AF909F908A
:101D20008F907F906F905F904F903F902F9008958D
:101D3000C0904002D0904102E0904202F0904302F5
:101D4000C8CEC701B60132D281110BCF20E030E0FE
:101D500040E857E4C701B6010E943A320E94B73109
:101D60006F3F710509F008F4FECE6FEF70E0FBCE17
:101D700040907109509072096090730970907409D5
:101D8000D8018D909D90AD90BC90A3019201C701A8
:101D9000B6010E94463181110BC080927109909268
:101DA0007209A0927309B0927409E5E7F9E018CFBF
:101DB000A301920169897A898B899C890E944631A5
:101DC00087FFEBCF8092690990926A09A0926B0914
:101DD000B0926C0903CF40908109509082096090C5
:101DE000830970908409A3019201C701B6010E9482
:101DF000463181110BC08092810990928209A09294
:101E00008309B0928409E5E8F9E019CFA3019201B2
:101E100069897A898B899C890E94463187FFEBCF3B
:101E200004CF8F929F92AF92BF92DF92EF92FF9278
:101E30000F931F93CF93DF9384E090E080D1EFE87E
:101E4000F3E089E394E097838683CCE3D4E0D093F6
:101E5000D003C093CF030DE214E0158B048BF093F5
:101E6000FA03E093F903F583E48321E030E0DC0139
:101E70002D933C938DEA92E0938782872EE334E0A2
:101E80003983288340E050E060E87FEB40933504DD
:101E90005093360460933704709338044AE057ED4A
:101EA00063E27CE3D8014D935D936D937C9313972C
:101EB000C7E1D4E081E590E3ACE6B1E4888399839F
:101EC000AA83BB8387E096EAA5E9B9EA80931B045D
:101ED00090931C04A0931D04B0931E0482E799EB19
:101EE000ABEAB3E680931F0490932004A0932104EF
:101EF000B093220480E59CE8A9E6B1E48093230432
:101F000090932404A0932504B0932604A3E8B3E09F
:101F1000B383A283E7E7F3E01196FC93EE938FEB94
:101F200092E09183808393838283958384839783D4
:101F30008683918780879387828787E294E01596CE
:101F40009C938E9314971396DC93CE9312971796C7
:101F50003C932E931697CDE3D9E0188200E012E06F
:101F6000F80184A195A1A6A1B7A18E839F83A8871C
:101F7000B987812C912C5401839489829A82AB82F7
:101F8000BC8243E150E062E170E081E090E00E94B9
:101F90009504DD24D394DD821A86F80180A191A1F5
:101FA000A2A1B3A1888B998BAA8BBB8B8B869C86B5
:101FB000AD86BE8643E050E062E070E090E080E0F5
:101FC0000E949504DF861C8E8D8E9E8EAF8EB8A2E9
:101FD00061E088E00E943801D9A21C8A8D8A9E8A1D
:101FE000AF8AB88E61E087E00E943801D98E1CA2CA
:101FF0008DA29EA2AFA2B8A6E12CF12C8701A80168
:10200000970166E070E080E090E00E94C2019BA72B
:102010008AA7D9A68091CB099091CC09A091CD092E
:10202000B091CE098CA79DA7AEA7BFA78CAB9DABE7
:10203000AEABBFAB8CAF9DAFAEAFBFAF80938109EE
:1020400090938209A0938309B0938409DF91CF9183
:102050001F910F91FF90EF90DF90BF90AF909F90F6
:102060008F90089580913D09811103C081E0809394
:102070003D0980914709811103C081E080934709A0
:1020800080915909811103C081E0809359098091A1
:102090005109811103C081E0809351098091610948
:1020A00081112EC081E08093610980916209909135
:1020B0006309A0916409B09165090197A105B10573
:1020C000F9F4809166098823D9F066E070E080E039
:1020D00090E00E947E01909368098093670940E038
:1020E00050E0BA010E94470166E070E080E090E0B5
:1020F0000E947E0190936809809367090C941302F3
:10210000089560E070E080E89FE7089560E070E087
:1021100080E89FE7089560E070E080E89FEF089511
:1021200060E070E080E89FEF089560E070E080EC90
:102130009FEF089560E070E080EC9FEF0895F5DF79
:102140006093CF097093D0098093D1099093D209FD
:10215000F1DF6093C3097093C4098093C50990931C
:10216000C609CFDF6093CB097093CC098093CD096A
:102170009093CE09CBDF6093C7097093C809809311
:10218000C9099093CA09C7DF6093D3097093D40932
:102190008093D5099093D609C3DF6093D7097093D4
:1021A000D8098093D9099093DA090895CF92DF92E4
:1021B000EF92FF92CF936B017C01AC019B01609188
:1021C000CB097091CC098091CD099091CE090E94E4
:1021D0004631C1E0882371F0A70196016091D309CF
:1021E0007091D4098091D5099091D6090E94463109
:1021F0008111C0E08C2FCF91FF90EF90DF90CF90B6
:1022000008950F931F938B019C01002711272078BD
:102210003F770115110520483F4749F4AB01BC0148
:102220006F77772781E0452B462B472B09F480E019
:102230001F910F910895E5CF4F925F926F927F9219
:102240008F929F92AF92BF92CF92DF92EF92FF92C6
:102250000F931F93F8944090520450905304609051
:10226000540470905504C0904604D0904704E09008
:102270004804F09049044130510509F0A4C09B0185
:10228000AC01241935094609570929013A01009181
:102290004E0410914F042091500430915104480194
:1022A0005901840C951CA61CB71C80169106A20629
:1022B000B306A0F400914A0410914B0420914C0401
:1022C00030914D040F5F1F4F2F4F3F4F00934A0433
:1022D00010934B0420934C0430934D0480924E0491
:1022E00090924F04A0925004B092510400914A047D
:1022F00010914B0420914C0430914D04809256046F
:1023000090925704A0925804B092590400935A0432
:1023100010935B0420935C0430935D04609352043B
:10232000709353048093540490935504A0E1B7E252
:10233000A30192010E944D3C6C0D7D1D8E1D9F1DC1
:102340006093460470934704809348049093490433
:10235000009160021091610220916202309163024B
:102360000F3F1F4F2F4F3F4FF1F000916002109130
:10237000610220916202309163020E3F1F4F2F4F86
:102380003F4F89F0C0906002D0906102E0906202FD
:10239000F090630221E08C149D04AE04BF0408F4A5
:1023A00020E02093620478941F910F91FF90EF90AA
:1023B000DF90CF90BF90AF909F908F907F906F9065
:1023C0005F904F9008954B015C0184189508A60812
:1023D000B708A3019201261B370B480B590B641554
:1023E000750586059705D0F082169306A406B506F6
:1023F00040F420E030E0A90181149104A104B1046B
:1024000091F4A0E1B7E20E944D3CA7019601261B82
:10241000370B480B590BCA01B901C5CF8216930679
:10242000A406B50670F7A0E1B7E2A50194010E94E9
:102430004D3C6C0D7D1D8E1D9F1DB5CFFDCECF93E8
:10244000DF9300D01F92CDB7DEB71C821B821A82A9
:10245000198210925E0410925F0410926004109230
:102460006104BE016F5F7F4FCE0103960E941C2F57
:1024700069817A818B819C810E940A28009761F48E
:10248000BE016F5F7F4FCE0103960E94282F6981A6
:102490007A818B819C812FD50F900F900F900F9098
:1024A000DF91CF910895FF920F931F93CF93DF9306
:1024B000082F60E070E0CB010E941536FF24F394F2
:1024C0000E94F326EC01892B89F010E0CE3F8FEFBC
:1024D000D80769F0002361F160E070E0CB010E9451
:1024E000153681E090E0892B59F322C011E026D502
:1024F000EC01892B21F0CE3F8FEFD80759F711114E
:102500001EC011E0229609F410E00E94A326EC01FF
:10251000892B21F0CE3F8FEFD807E1F6111111C0C2
:1025200011E0CE3F8FEFD80709F410E001110BC086
:10253000CE01DF91CF911F910F91FF90089511E08F
:10254000E4CF11E0F3CF60E070E0CB010E941536DC
:102550001F25812F90E0C7CFCF93DF938091620436
:10256000882321F060E070E0CB014DD636D6D0E074
:10257000C0E0892B71F06AE070E080E090E00E949A
:10258000153681E090DF29D62196C03D27E0D2079D
:1025900081F728D60E945E2810927A04109279045E
:1025A00010927304109274041092750410927604C1
:1025B00010926F04109270041092710410927204C1
:1025C00010926B0410926C0410926D0410926E04C1
:1025D00010926704109268041092690410926A04C1
:1025E00010926304109264041092650410926604C1
:1025F0004EEF5FEF6FEF7FEF409360025093610209
:10260000609362027093630210926204E6E5F4E064
:1026100028E0DF011D922A95E9F7109252041092EA
:102620005304109254041092550410924E041092C8
:102630004F04109250041092510410924A041092C8
:102640004B0410924C0410924D04109246041092C8
:1026500047041092480410924904DF91CF910895E5
:1026600010928604109287041092880410928904B4
:102670001092850480918E0490918F04909384042D
:1026800080938304109282041092810410927D043E
:1026900010927E0410927F041092800410928B049A
:1026A00010928A0490E080E00895CF92DF92EF923A
:1026B000FF920F931F93CF938C01019709F055C0A0
:1026C00020918E0430918F04809183049091840432
:1026D00040918E0450918F0450938404409383045E
:1026E0002817390781F01092820410928104109209
:1026F0007D0410927E0410927F0410928004109248
:102700008B0410928A0480918E0490918F0401971B
:1027100061F580918A0490918B04892B21F480913A
:102720006402811112C080918A0490918B040197F8
:10273000E1F480917D0490917E04A0917F04B0919A
:1027400080040197A105B10581F410927D041092D7
:102750007E0410927F04109280041092640282E042
:1027600090E090938B0480938A0480918E049091E2
:102770008F04019709F01CC18091A4049091A504D5
:102780008017910709F014C18091A0049091A104D1
:10279000A091A204B091A304009709F409C120916B
:1027A0009F0421110DC04091A0045091A10460919B
:1027B000A2047091A304452B462B472B09F4F8C0C3
:1027C00020918A0430918B042230310509F0F0C049
:1027D000209181042111ECC0FC01C080D180E280F5
:1027E000F38080918504882309F4D3C080919104FB
:1027F00090919204892B09F4FEC0209191043091AC
:10280000920481E02230310509F080E020919104AA
:1028100030919204C1E02130310549F020919104BA
:1028200030919204C1E02230310509F0C0E08823E4
:1028300009F456C020919B0430919C0440919D0462
:1028400050919E04C701B6010E94363387FD14C023
:1028500020919B0430919C0440919D0450919E04D2
:102860006091860470918704809188049091890416
:102870000E94463187FD22C020919B0430919C0428
:1028800040919D0450919E04C701B6010E943633C9
:10289000181634F520919B0430919C0440919D04BE
:1028A00050919E0460918604709187048091880401
:1028B000909189040E944631811112C08091930445
:1028C00090919404A0919504B0919604892B8A2B41
:1028D0008B2B19F481E08093820481E08093810442
:1028E000CC2309F456C020919B0430919C04409164
:1028F0009D0450919E04C701B6010E94463187FF96
:1029000014C020919B0430919C0440919D045091EF
:102910009E04609186047091870480918804909150
:1029200089040E94363387FF22C020919B04309196
:102930009C0440919D0450919E04C701B6010E94E1
:102940004631811126C020919B0430919C04409116
:102950009D0450919E04609186047091870480913B
:102960008804909189040E943633181694F480915B
:10297000930490919404A0919504B0919604892BAE
:102980008A2B8B2B19F481E08093820481E0809361
:10299000810481E090918104911180E0809385040D
:1029A000C0928604D0928704E0928804F092890451
:1029B0000130110509F067C180918A0490918B0460
:1029C000892BD9F4109290041092810480916402B2
:1029D000882379F082E090E090938B0480938A04BE
:1029E0001092640220918E0430918F0481E0232B99
:1029F000E9F080E01BC081E009CF10926402809171
:102A00009004882349F01092820410928B04109253
:102A10008A0410929004EDCF80918E0490918F04DF
:102A2000892BE1F0809181041092810420918A0425
:102A300030918B042230310509F45EC088F42115F1
:102A4000310509F448C02130310509F4F3C0109272
:102A50008204109281041092900438C081E0E6CF85
:102A60002330310509F4B1C02430310581F740919C
:102A70007D0450917E0460917F0470918004411523
:102A800051056105710561F04150510961097109F4
:102A900040937D0450937E0460937F047093800480
:102AA00040917D0450917E0460917F047091800478
:102AB000452B462B472BD9F420918C0430918D0463
:102AC0002130310509F046C01092820410928B0427
:102AD00010928A040CC080916402882341F082E045
:102AE00090E090938B0480938A0410926402109279
:102AF0007B0480918204CEC08823C9F38091930423
:102B000090919404A0919504B0919604181619061A
:102B10001A061B060CF07DC080918E0490918F04E4
:102B2000019709F076C08091930490919404A0914C
:102B30009504B091960480937D0490937E04A093B5
:102B40007F04B093800483E090E090938B048093A3
:102B50008A04CDCF409197045091980460919904D4
:102B600070919A04452B462B472BA9F010928204B2
:102B70008091970490919804A0919904B0919A043F
:102B800080937D0490937E04A0937F04B09380048F
:102B900081E090E0DACF882399F0809165029091EE
:102BA0006602A0916702B091680280937D049093C1
:102BB0007E04A0937F04B093800484E090E0C5CFAE
:102BC0001092820482E090E0C0CF80917D049091C9
:102BD0007E04A0917F04B09180040097A105B10507
:102BE00059F00197A109B10980937D0490937E0467
:102BF000A0937F04B093800480917D0490917E0423
:102C0000A0917F04B0918004892B8A2B8B2B09F033
:102C10006ECF8091650290916602A0916702B0919B
:102C20006802892B8A2B8B2B09F44ECF81E080938D
:102C30008204B3CF40917D0450917E0460917F0463
:102C400070918004411551056105710561F0415095
:102C500051096109710940937D0450937E0460938A
:102C60007F047093800440917D0450917E046091B4
:102C70007F0470918004452B462B472B09F037CFFA
:102C80008111C7CF9FCF80917B04882309F431CF76
:102C900080917C04CF911F910F91FF90EF90DF9076
:102CA000CF900895109286041092870410928804A1
:102CB000109289041092850410928B0410928A0459
:102CC00010928404109283041092A5041092A4041C
:102CD000109282041092810410927D0410927E045E
:102CE00010927F041092800410927C0410927B0456
:102CF0001092A0041092A1041092A2041092A304B6
:102D000010929F0410929B0410929C0410929D04B8
:102D100010929E0488EE93E0A0E0B0E080936502FC
:102D200090936602A0936702B09368021092970492
:102D3000109298041092990410929A04109293049D
:102D4000109294041092950410929604109292049A
:102D50001092910481E0809364021092900410928A
:102D60008F0410928E0410928D0410928C0490E0C7
:102D700080E0089580918E0490918F04892B19F53D
:102D800080916402882351F080919004811106C0E3
:102D900081E080937C0480937B04089520919004CB
:102DA0003091640281E090E0332311F090E080E004
:102DB00030E082239323892B21F010927C0481E060
:102DC000EACF10927B04089582E090E0FA019183AB
:102DD00080838FEF9FEF0895CF93DF93EA010097F1
:102DE00011F00E947E291982188290E080E0DF9124
:102DF000CF910895DB01009719F48FEF8C9308951C
:102E00002EEF2C93FC013F96EF30F10508F034C013
:102E10008827E25FF84E8F4F0C94453C3A173817DD
:102E20003617341732172E1730172C172A17281772
:102E3000251721171D1723173C1780E311968C9334
:102E4000089589E2FBCF82E2F9CF11961C92089592
:102E500083E2F4CF81E2F2CF81E1F0CF87E2EECFDF
:102E60008AE2ECCF80E1EACF84E2E8CF88E2E6CFE5
:102E700086E2E4CF81E3E2CF80E2E0CF8091B2044A
:102E80009091B30408959093B3048093B20408958D
:102E90008091B10408959091B104892B8093B1047D
:102EA0000895982F90958091B10489238093B1045F
:102EB00008958091B00408958091AE049091AF047C
:102EC00008956115710559F0FB0130E020E070E0D4
:102ED00060E02417350719F06115710511F0CB0179
:102EE0000895A081B181A817B90709F4BF012F5F28
:102EF0003F4F3696EECF8091B40481111CC060D252
:102F000066D29093A7048093A6040E947C210E941D
:102F10008E219093AB048093AA040E940B260E94FA
:102F200012269093A9048093A80481E08093B404AE
:102F300090E080E0089584EF9FEF08958F929F9234
:102F4000AF92BF92CF92DF92EF92FF920F931F93B7
:102F5000CF93DF9300D000D000D01F92CDB7DEB763
:102F60001A86198618861F821E821D821C821B8269
:102F70001A8219828091B40407EF1FEF882309F4A5
:102F80009CC08E010D5F1F4F9E012B5F3F4FAE0116
:102F9000495F5F4FBE01675F7F4F90E080E00E9416
:102FA0008F278C01009721F00596029708F0DBC06F
:102FB00029853A852115310509F402C1ED80FE808D
:102FC0004B815C81B701640F751F8F8198858617CF
:102FD000970708F4F5C0E20EF31ED7019C91903CD0
:102FE00009F07FC04230510508F47BC011968C91E6
:102FF0004091B2045091B304452B09F49CC0913F19
:1030000008F071C02CE1290F2D3008F48BC02DE29F
:10301000290F203108F489C0903C21F4815082307E
:1030200008F483C088E3890F8B3008F481C09AEFDD
:10303000C92E96E1D92EE4EEF6E16D817E81AE01D6
:103040004F5F5F4F89859A8519955C01C114D10442
:10305000A1F189809A808114910479F18B819C81FE
:103060008815990508F487C010E000E04B815C8169
:1030700070E060E0C7010E946F3C01151105E9F4A2
:1030800049815A8169857A858D819E81680F791F72
:10309000C501F6011995E980FA800D811E812F8105
:1030A000388549855A856FEF7FEF81E090E00E9477
:1030B0002A278C01892B09F056C0C8012A960FB621
:1030C000F894DEBF0FBECDBFDF91CF911F910F915E
:1030D000FF90EF90DF90CF90BF90AF909F908F9038
:1030E000089580E085CF30E020E0220F331FF90102
:1030F000EA55FB4F0190F081E02D309709F497CF0E
:10310000892F90E01995009709F491CFDC01129670
:10311000ED91FC9113971496CD90DC90309709F0C7
:103120008CCF1FC021E030E0E0CF22E030E0DDCFE7
:1031300023E030E0DACFD12CC12CECEEF6E19F3F5A
:1031400009F07BCFE091A604F091A704309721F419
:10315000C90104EF1FEF0CC08FEF90E019950097A5
:10316000A9F604EF1FEF89859A85009709F4A5CF8A
:103170000E947E29A2CF0E9459288C0189859A85B8
:103180000E947E2970E060E0C4010E94F2279887C7
:103190008F830E9427279E838D836F817885611599
:1031A000710559F0C8010E940A2B9A87898706EF9A
:1031B0001FEF892B09F058CF59CF08EF1FEF56CFDB
:1031C00008EF1FEFD0CF2091B404222319F020E0A4
:1031D0000C94932187EF9FEF08958091B204909112
:1031E000B30408950E9417260E947125F5D0E6EADF
:1031F000F4E088E0DF011D928A95E9F71092B404AB
:1032000090E080E008950C94CF2321E040E050E06E
:10321000BA010C94932186E090E0FA0191838083B7
:1032200090E080E0089547E050E062EC72E049CE23
:10323000DF92EF92FF920F931F93CF93DF938A0158
:10324000EC01C60FD71FE090B804F090B904D98004
:103250000E944128D816190678F082E090E0F80123
:10326000918380838EEF9FEFDF91CF911F910F911C
:10327000FF90EF90DF900895EF2841F482E090E016
:10328000F8019183808384EF9FEFEECF8981809353
:10329000B70490E00196F8019183808390E080E08C
:1032A000E3CFCF93DF93EA010E948024882321F0AB
:1032B0000E944E280E94812482E090E099838883B6
:1032C0008BEF9FEFDF91CF910895CF93DF93EB01C9
:1032D00086E0FB0111928A95E9F78FEF8883D8DDAC
:1032E0008983E7DD8A83E8DD9D838C83DF91CF913D
:1032F0000895CF93DF93EA010E948324811109C0CE
:1033000082E090E09983888385EF9FEFDF91CF91F2
:10331000089590E080E0B7DD81E090E099838883B4
:1033200090E080E0F3CF0F931F93CF93DF93EA01F8
:103330008C01060F171F0E94832481110BC082E0AD
:1033400090E09983888385EF9FEFDF91CF911F9164
:103350000F910895F8018181823038F082E090E089
:10336000998388838EEF9FEFF0CF81E090E08BDD33
:1033700088E090E09983888390E080E0E6CFCF9367
:10338000DF930097D1F4EB01FB01329686E0DF0179
:103390001D928A95E9F78FEF888385E089831A82E9
:1033A0000E9441288B830E9440289D838C8381E06A
:1033B0008E838F83DF91CF910895DF91CF911ACDC6
:1033C00083E199E19093B6048093B50408958091C8
:1033D000B5049091B60408951092B6041092B50405
:1033E00008958091B8049091B9040895411105C0E1
:1033F000611571058105910561F06093B8047093C2
:10340000B9048093BA049093BB044093BC0481E058
:10341000089580E00895FF920F931F93CF93DF9359
:103420008A01EC01C60FD71FF9800E944128F816C7
:10343000190668F082E090E0F801918380838EEFB6
:103440009FEFDF91CF911F910F91FF9008956C81B5
:103450007D818E819F814B81C9DF811108C082E00F
:1034600090E0F8019183808384EF9FEFEACF898118
:103470008093B70490E00196F8019183808390E0F7
:1034800080E0DFCFCF93DF93EA01FC01E60FF71F67
:1034900064817581868197814381A8DF811109C08C
:1034A00082E090E09983888384EF9FEFDF91CF9152
:1034B000089581E090E09983888390E080E0F6CFE2
:1034C000E8EBF4E04081518162817381480F511D26
:1034D000611D711D40835183628373830895CF936F
:1034E000C091B7044C2F50E06091B8047091B904BA
:1034F00001960E94663C8C2FE3DF1092B704CF91B7
:103500000895009799F48091B8049091B9042FEF31
:10351000FB012083892B59F02091B70430E02F5F05
:103520003F4F2417350719F4CB01D9CF63CC089549
:10353000009799F48091B8049091B9042FEFFB01A2
:103540002083892B59F02091B70430E02F5F3F4F43
:103550002417350719F4CB01C2CF4CCC089523E1D1
:10356000AC01249FC001259F900D1124E091C1045E
:10357000F091C204E80FF91F2381348122503109F0
:1035800081E02230310508F080E008950F931F9309
:10359000CF93DF930091C3041091C404D0E0C0E046
:1035A00080E00C171D0749F491E0811190E0892F0C
:1035B000DF91CF911F910F9108958111F5CFCE0129
:1035C000CEDF2196EECFA091C104B091C204109736
:1035D00029F12091C3043091C40482179307F0F4B9
:1035E00053E1589F9001599F300D1124A20FB31F32
:1035F000ED91FC911197309789F012968C91681794
:1036000068F48DE0689FE00DF11D112480819181A7
:10361000892B21F081E09281491708F080E008951C
:103620009C0143E1429FC001439F900D1124E09112
:10363000C104F091C204E80FF91F8385823091F430
:1036400081E090E0658176814091690250916A0243
:103650006417750711F490E080E0892B19F081E080
:10366000232B09F080E00895FC01A081B1818DE059
:10367000689FA00DB11D112413964D915C91858515
:103680009685489F9001499F300D589F300D112419
:10369000C9010196611103C0478144FD0496089554
:1036A000EF92FF920F931F93CF93DF93EA01FC01F8
:1036B000E60FF71F02811381E480F5804F2D6E2DF8
:1036C000C80181DF81110DC082E090E09983888379
:1036D0008EEF9FEFDF91CF911F910F91FF90EF90B1
:1036E0000895C8013CDF882339F082E090E0998397
:1036F000888388EF9FEFEECF1093700200936F02E4
:10370000E0927102F092720281E090E099838883E6
:1037100090E080E0DFCFCF92DF92EF92FF920F93A5
:103720001F93CF93DF937A01EC01C60FD71FC09090
:103730006F02D09070020091710210917202412FBD
:10374000602FC60140DF811110C082E090E0F701D8
:10375000918380838AEF9FEFDF91CF911F910F912B
:10376000FF90EF90DF90CF900895C601F8DE882398
:1037700041F082E090E0F7019183808388EF9FEF32
:10378000EBCF4C815D816E817F819A8189818F3FF2
:1037900041F082E090E0F701918380838EEF9FEF0C
:1037A000DBCFE3E1EC9D9001ED9D300D1124E09124
:1037B000C104F091C204E20FF31F0190F081E02DEB
:1037C0002DE0029FE00DF11D11240190F081E02D0C
:1037D00027E0129FE00DF11D1124808391838B81DE
:1037E000828343835483658376831F5F10937202C1
:1037F00081E090E0F7019183808390E080E0ACCF9E
:10380000EF92FF920F931F93CF93DF937A018C0176
:10381000060F171FC091C104D091C204209781F0F8
:1038200021E030E0F801828193814091C3045091FE
:10383000C4048417950710F030E020E0232B71F4C6
:1038400082E090E0F701918380838EEF9FEFDF911C
:10385000CF911F910F91FF90EF90089543E1489F02
:103860009001499F300D1124C20FD31F78DE8823A9
:1038700041F082E090E0F7019183808388EF9FEF31
:10388000E6CFF8012481358120383105C8F68781DB
:103890008111D6CF4181842F90E08F7E009741F037
:1038A00082E090E0F7019183808386EF9FEFCFCF96
:1038B0004F833E832D83268128871986223010F47A
:1038C00021E0288721E030E0F70131832083BFCF5A
:1038D00088E090E0FA019183808390E080E0089591
:1038E000FB018FEF808381E181838FEF9FEF9383D3
:1038F000828380E890E095838483168217820895FE
:10390000FB018FEF808391E0918382839383848393
:1039100084E3858381E090E0978386830895DF9236
:10392000EF92FF920F931F93CF93DF93EA01FC0175
:10393000E60FF71F8181813071F082E090E099837A
:1039400088838FEF9FEFDF91CF911F910F91FF90B1
:10395000EF90DF90089582819381D4802581E68065
:10396000F7800091C1041091C2040115110539F4CA
:1039700082E090E0998388838CEF9FEFE4CF4091C1
:10398000C3045091C4048417950738F082E090E096
:10399000998388838EEF9FEFD6CF892B39F082E011
:1039A00090E09983888386EF9FEFCDCF8D2D8D7F1B
:1039B000B1F72130A1F781E0D11006C091E0E916FE
:1039C000F10431F080E004C0E2E0EE16F104D0F33F
:1039D000882329F390E080E0C2DD882339F082E07B
:1039E00090E09983888388EF9FEFADCFF801D3866D
:1039F00081E08487F686E586108A178681E090E06C
:103A00009983888390E080E09ECF4CE050E06CEE9C
:103A100072E057CA8F929F92BF92CF92DF92EF923D
:103A2000FF920F931F93CF93DF93EA01FC01E60F00
:103A3000F71F828193810481B580E091C104F091E8
:103A4000C204309791F482E090E0998388838CEFF0
:103A50009FEFDF91CF911F910F91FF90EF90DF903B
:103A6000CF90BF909F908F9008952091C304309184
:103A7000C4048217930738F082E090E0998388832A
:103A80008EEF9FEFE6CF23E1289F6001299FD00CA6
:103A90001124EC0DFD1DE080F180E114F10499F298
:103AA0008281081748F78DE0089F80011124E00EFD
:103AB000F11EF70180819181892B29F6BB20E1F26B
:103AC000F7E0BF9E40011124C4010E944529F7017F
:103AD00091838083E091C104F091C204EC0DFD1D3F
:103AE0000190F081E02DE00FF11F8081918100971E
:103AF00039F482E090E0998388838DEF9FEFA9CF1E
:103B0000A40170E060E00E946F3C8091C10490913C
:103B1000C204C80ED91EF60180819181080F191FB9
:103B2000F801B28281E090E09983888390E080E0A0
:103B300090CFAF92BF92CF92DF92FF920F931F93DD
:103B4000CF93DF93EA01FC01E60FF71F8281938197
:103B5000F4800091C1041091C2040115110581F493
:103B600082E090E0998388838CEF9FEFDF91CF9183
:103B70001F910F91FF90DF90CF90BF90AF9008956D
:103B80002091C3043091C4048217930738F082E077
:103B900090E0998388838EEF9FEFE8CF2FEF2F0D72
:103BA0002C3FA8F723E1289F6001299FD00C112406
:103BB0000C0D1D1DF80180819181892B89F6FDE096
:103BC000FF9E50011124C5010E944529F8019183EF
:103BD0008083E091C104F091C204EC0DFD1D808151
:103BE0009181009739F482E090E0998388838DEF8A
:103BF0009FEFBCCFA50170E060E00E946F3CE091B8
:103C0000C104F091C204EC0DFD1DF28281E090E050
:103C10009983888390E080E0A9CFCF92DF92EF92E2
:103C2000FF920F931F93CF93DF93860F971FFC0193
:103C3000028113818091C1049091C204892B81F08B
:103C400082E090E0FA01918380838CEF9FEFDF9117
:103C5000CF911F910F91FF90EF90DF90CF9008953B
:103C6000C801B0E0A0E00197A109B1098F3F9F4FC3
:103C7000A105B10540F082E090E0FA0191838083D4
:103C80008EEF9FEFE4CF7A0183E1809F6001819FF7
:103C9000D00C1124C6010E944529EC01009741F483
:103CA00082E090E0F701918380838DEF9FEFCFCF8B
:103CB000A60170E060E00E946F3CD093C204C09304
:103CC000C1041093C4040093C30490E080E02FEF7C
:103CD0003FEF41E061E070E08017910741F481E03F
:103CE00090E0F7019183808390E080E0B0CF3A8B41
:103CF000298B1B864C877E876D87188A1F860196C5
:103D00006396EACFEF92FF921F93CF93DF93EC017C
:103D100010E0F12CE12C6A811617B0F083E0689F67
:103D2000B0011124AE014F5E5F4FC7010E94AA2966
:103D3000009721F02FEF3FEF3A8B298BDF91CF9146
:103D40001F91FF90EF900895612FCE018DDC61E00F
:103D500070E00E94F227E816F90608F47C011F5F64
:103D6000DACFF8942091BF043091C00481E021158E
:103D7000310509F080E0232B09F0789408952F9203
:103D80003F924F925F926F927F928F929F92AF92EB
:103D9000BF92CF92DF92EF92FF920F931F93CF9338
:103DA000DF933C01660E771EF301828193814C0103
:103DB000B12CA12CC091C104D091C204209769F00C
:103DC00021E030E06091C3047091C4048617970726
:103DD00010F030E020E0232BD1F482E090E0FA01F3
:103DE000918380838EEF9FEFDF91CF911F910F9191
:103DF000FF90EF90DF90CF90BF90AF909F908F900B
:103E00007F906F905F904F903F902F900895809299
:103E1000730290927402A0927502B092760263E1EE
:103E2000689F9001699F300D1124C20FD31FF301C9
:103E30008181833040F082E090E0FA0191838083B9
:103E400086EF9FEFD1CF2A012B813C81232BF1F408
:103E5000288139819F8191FF2EC0232B09F46FC0E7
:103E60002091C6049A81422F490F5527551FBA0148
:103E700041E050E06138710514F050E040E0452B1E
:103E800009F45DC02A87920F9093C6048150823056
:103E900008F481C066DF882309F4D8C0F30181816A
:103EA000813009F48DC008F47BC0823009F4C6C0AB
:103EB00090E080E0ADC0232B09F441C02091C504FF
:103EC0009A81E22FE90FFF27FF1F41E050E0ED3F0D
:103ED000F10514F050E040E0452B89F12A87920F5C
:103EE0009093C504D3CFA081B181A20FB31F1196C7
:103EF0006C91060F111D0196295F3F4F841795079E
:103F000094F38D859E85089F1001099F300C189FA2
:103F1000300C1124C114D104D1F48F8184FF17C057
:103F20000E944028F5E02F0E311C21E082159305F8
:103F300008F420E0A701435F5F4F21110EC082E02B
:103F400090E0F2019183808387EF9FEF4DCF0E9435
:103F500040282FEF221A320AE8CF88819981E80E93
:103F6000F91EF70114830383FFEFCF1ADF0A7A01EA
:103F70008A818C151D0409F00CF48CCFE881F9813D
:103F8000EE0DFF1D428150E030E020E010E000E047
:103F900090E080E0B3CFF12CE12CD12CC12CE8CF04
:103FA00081E090E09C838B83F1DA882309F480CF51
:103FB00081E090E00E94431780E40E94511778CF7F
:103FC00089899A89019661F083E090E09C838B83D4
:103FD00082E090E00E94431780E40E944B1768CF74
:103FE0008D819E812091690230916A028217930728
:103FF000D1F460916D0270916E02AE014F5E5F4F21
:1040000080916B0290916C020E94C92A0097E1F2A4
:10401000789422E030E0F20131832083892B99F0FB
:104020008DEF9FEFE1CE89288A288B2869F60297C9
:1040300058F6CE0167DE188A1F86E8CF82E090E04E
:104040009C838B8335CF90E080E0CECE82E090E001
:10405000F2019183808385EF9FEFC6CE8F929F926E
:10406000AF92BF92CF92DF92EF92FF920F931F9386
:10407000CF93DF93EA018C01060F171FF8018181AE
:10408000833098F082E090E09983888386EF9FEFF9
:10409000DF91CF911F910F91FF90EF90DF90CF9024
:1040A000BF90AF909F908F9008958091C1049091A0
:1040B000C204892B61F081E090E02091C30430912B
:1040C000C404232B11F490E080E0892B39F482E0C2
:1040D00090E0998388838EEF9FEFDACF42DE8823CA
:1040E00009F4E0C0F8018181813009F496C0E8F05C
:1040F000823099F42091C3043091C404E091C1044A
:10410000F091C20490E080E041E050E028173907C8
:1041100009F0BEC03BDA811117C0789481E090E0CD
:104120009983888390E080E0B3CF2091C3043091DD
:10413000C404E091C104F091C20490E080E041E049
:1041400050E02817390741F481E090E00E944317BE
:1041500080E40E945117E1CF63817481672B11F0D5
:104160005483438301967396ECCFE091C104F091A0
:10417000C204E00FF11F2381348122303105D9F4CC
:10418000218932892F3F3F4FB1F4258136814091FB
:10419000690250916A022417350761F5AF014F5E3D
:1041A0005F4F60916D0270916E0280916B029091F1
:1041B0006C020E94C92AEFEFCE1ADE0AEE0AFE0A4E
:1041C0000D5E1F4F4091C3045091C40470E060E045
:1041D000C416D506E606F70644F5009731F2789442
:1041E000892B09F49BCF82E090E0998388838DEF3F
:1041F0009FEF4ECFC114D104E104F104E1F6223067
:104200003105C8F6CF017EDDE091C104F091C20412
:10421000E00FF11F108A1786CECF10E000E090E08B
:1042200080E0C12CD12C7601CDCF0097C1F610E0F3
:1042300000E0812C912C540183E0E82EF12C1AC06F
:10424000E091C104F091C204E00FF11F83819481D9
:10425000029749F4F482E38282E090E00E944317DF
:1042600080E40E944B17FFEF8F1A9F0AAF0ABF0A24
:104270000D5E1F4F8091C3049091C404B0E0A0E094
:1042800088169906AA06BB06DCF290E080E0A7CF6C
:10429000638174816230710511F454834383019604
:1042A000739634CF82E090E09983888385EF9FEF07
:1042B000EFCE0097B9F48FEFFB018083209173025A
:1042C0003091740243E1429FC001439F900D11243D
:1042D000E091C104F091C204E80FF91F8285FB014F
:1042E000818308950C94FA1688E090E0FA01918396
:1042F000808390E080E008951092C0041092BF0483
:10430000E1ECF4E086E0DF011D928A95E9F785E0B3
:104310009DE19093BE048093BD0408958091BD04F7
:104320009091BE0408952F923F924F925F926F92A8
:104330007F928F929F92AF92BF92CF92DF92EF9235
:10434000FF920F931F93CF93DF93CDB7DEB72F97D5
:104350000FB6F894DEBF0FBECDBFF894E091BF0456
:10436000F091C0043196F093C004E093BF047894B8
:104370004090C1045090C2044114510409F40CC28D
:10438000E091C304F091C404EF2B09F405C22D871A
:1043900049875A876B877C8798878F831201B12C56
:1043A000A12C10E000E08091C3049091C404A816F1
:1043B000B90618F40115110529F1F8948091BF048C
:1043C0009091C00401979093C0048093BF047894A7
:1043D000C8012F960FB6F894DEBF0FBECDBFDF9198
:1043E000CF911F910F91FF90EF90DF90CF90BF90F2
:1043F000AF909F908F907F906F905F904F903F9085
:104400002F9008957101E418F508D10117968C9149
:10441000179781FD54C013968D919C911497039723
:1044200009F04DC015968D919C91EF81F8858E17FE
:104430009F0709F044C0B50190E080E07FD48A83F3
:104440002091C1043091C2043D832C833D853323E8
:1044500009F44CC04C815D81452B09F49AC18091CF
:10446000C3049091C404A816B90608F092C1C5010E
:10447000D7D88823E9F06C817D816E0D7F1D7D8307
:104480006C83DB011F968D919C91892B89F0D12C37
:10449000C12CF12CE12CAC81BD8112968C9112972C
:1044A0008E151F0409F094F450961C921E921F97CB
:1044B0002A81222321F0B50190E080E041D43FEF32
:1044C000A31AB30A43E1240E311C6DCFAC81BD8128
:1044D000ED91FC91EC0DFD1D858196810FD7BFEF0D
:1044E000EB1AFB0AEDE0CE0ED11CD5CFEC81FD819D
:1044F000309709F44EC18091C3049091C404A8166A
:10450000B90608F046C1EE0DFF1DFF87EE87C50115
:1045100087D88B83882339F1AE85BF851F968D910F
:104520009C915097019621E01D964D915C918417C6
:10453000950709F020E02E831982712C10E000E02D
:10454000AE85BF8512968C91781608F45DC0EE8515
:10455000FF85878590890196658576850E940F3C49
:10456000908B8787A5CFB1E0BE83E6CF9924939443
:104570006BC08BD6F6019683858382C0D601ED9001
:10458000FC90B7E06B9EE00CF11C1124F7016381F5
:10459000748180818F3F61F121E030E002C0220F01
:1045A000331F8A95E2F7C901092E000CAA0BBB0B39
:1045B000FB01408151816281738184239523A6236D
:1045C000B72321E0892B8A2B8B2B09F420E0D4011F
:1045D0002C93D70111968C91F60123853485820F97
:1045E000932F911D880E991E1486138663949BC089
:1045F000418150E0C4010E94663CEBCF998206EFF6
:104600001FEFC5C01982C3C0F981F111A0CFEDE041
:104610007E9E70011124AE85BF85CD90DC90CE0CBE
:10462000DF1C15D49D838C83BB81BB2309F49ECFF3
:1046300081E0EE85FF8527853089232B09F080E016
:10464000982E882309F458C0672D8E859F850CD835
:10465000D60118969C938E93179761E070E0C2D4B0
:10466000EE85FF85218932892F3F320709F481CFFA
:10467000BC01C901CFD7D60116969C938E9315978E
:10468000D60115968D919C911697009709F4B6CF97
:10469000EC81FD818E0F9F1F1A969C938E93199724
:1046A000AE85BF85ED91FC911197EE0EFF1EF701CF
:1046B00021853285148613861A968C91870DD9012F
:1046C0008D93711016C0EE85FF85878184FF11C020
:1046D00049855A856B857C85F901418352836383C3
:1046E0007483F701838594850496A80FB91F1486F7
:1046F0001386F701B287A187D60115968D919C91FB
:104700001697892B09F443C0EE85FF8525813681F4
:104710008091690290916A022817390779F01996F9
:104720008D909C90612CD60112968C9112976816F0
:1047300008F424CF1A969C928E921997BE81BB23BF
:1047400009F460CF61E070E0F601878190854AD47A
:10475000D6011796ED90FC90189715964D915C91A7
:10476000E1E0F0E0BA81BB2311F0F0E0E0E00C8181
:104770001D819C01B501882799278E1B9F0B6AD349
:104780008C01892B21F0F60185819681B7D5739430
:10479000D7CE0FEF1FEF8CCE10E000E00ECE2F92A1
:1047A0003F924F925F926F927F928F929F92AF92C1
:1047B000BF92CF92DF92EF92FF920F931F93CF930E
:1047C000DF938091C1049091C20410E000E0892B36
:1047D000A9F0C7DA0AEF1FEF882381F02090C30405
:1047E0003090C404C091C104D091C204D12CC12C1A
:1047F00010E000E02C143D04A9F47894C801DF9186
:10480000CF911F910F91FF90EF90DF90CF90BF90CD
:10481000AF909F908F907F906F905F904F903F9060
:104820002F900895C6010E94101B882309F18B81E7
:104830009C810397E9F48F859889892BC9F0B6018B
:1048400090E080E07BD221E030E0882311F030E07E
:1048500020E044245524421A530AB12CA12C912C57
:10486000812C8A818815190409F038F4188A1F866A
:104870004FEFC41AD40A6396BDCFE881F981EA0DDF
:10488000FB1D85819681892BA1F161E070E0878114
:104890009085A8D33C01DBD28C01E881F981EA0D37
:1048A000FB1D8185928525813681200F311FAC014A
:1048B000421B530B9A0147815085421B530B70E0FA
:1048C00060E00E946F3CE881F981EA0DFB1DE78002
:1048D000F084458156819301B601C201BBD28C019F
:1048E000892B39F0E881F981EA0DFB1D85819681DC
:1048F00005D55FEF851A950A8DE0A80EB11CB1CFE2
:1049000030CA789408952F923F924F925F926F929F
:104910007F929F92AF92BF92CF92DF92EF92FF92DF
:104920000F931F93CF93DF9300D000D0CDB7DEB7A6
:104930000091C1041091C2049924939401151105AA
:1049400009F43EC0A090C304B090C4040ADA982EC3
:104950008823B1F11092C2041092C1041092C404D1
:104960001092C3041092C5041092C6048FEF9FEFFB
:10497000DC018093730290937402A0937502B0934C
:10498000760278947FD31E830D83C12CD12C7601BF
:10499000C501B0E0A0E089839A83AB83BC83222465
:1049A0002A94322C89819A81AB81BC81C816D906A0
:1049B000EA06FB06F4F0C801A1D480E40E94511776
:1049C000892D26960FB6F894DEBF0FBECDBFDF91BE
:1049D000CF911F910F91FF90EF90DF90CF90BF90FC
:1049E000AF909F907F906F905F904F903F902F90EF
:1049F0000895AD81BE8115968D919C911697209159
:104A0000690230916A0282179307D1F451968D9111
:104A10009C91EED5ED81FE8180819181B12CA12CFC
:104A2000412C512C3201892B89F5BFEFCB1ADB0ABF
:104A3000EB0AFB0AED81FE817396FE83ED83B2CF14
:104A4000C114D104E104F10429F7029718F7ED81AC
:104A5000FE81818992898F3F980709F029D5AD8120
:104A6000BE8152963C922E925197D4CF8A0D9B1DB7
:104A7000DC018D919C91009709F040D4BFEF4B1A57
:104A80005B0A6B0A7B0AEDE0AE0EB11CAD81BE8104
:104A90008D919C91119712964C9150E070E060E0DE
:104AA00044165506660677060CF328D4BECFCF937E
:104AB000DF93EA0128DF811109C082E090E0998349
:104AC000888385EF9FEFDF91CF91089581E090E09B
:104AD0000E94431781E090E09983888390E080E012
:104AE000F2CF11DF1092BE041092BD04089542E08F
:104AF00050E064E373E00C946117FF920F931F93EF
:104B0000CF93DF938A01EC01C60FD71FF980B9D28A
:104B10000897F816190671F068F082E090E0F80145
:104B2000918380838EEF9FEFDF91CF911F910F9143
:104B3000FF9008956C817D818E819F814B810E94C1
:104B4000F619811108C082E090E0F801918380831A
:104B500084EF9FEFE9CFF9800E94F1194F2D50E0CB
:104B6000BE01685F7F4F0E94663C89810E94601A87
:104B700081E090E0F8019183808390E080E0D4CFE1
:104B8000DF92EF92FF920F931F93CF93DF938A01EF
:104B9000EC01C60FD71F0E94F1197C01D98071D298
:104BA000DD2059F0029721E030E0D816190619F0FF
:104BB00010F030E020E0232B79F482E090E0F8015F
:104BC000918380838EEF9FEFDF91CF911F910F91A3
:104BD000FF90EF90DF900895EF2841F482E090E09D
:104BE000F8019183808384EF9FEFEECFF9800E94DC
:104BF000F1194F2D50E0BE016E5F7F4F0E94663C61
:104C000089810E94601A81E090E0F801918380839D
:104C100090E080E0D9CF87E795E29093C804809335
:104C2000C70408958091C7049091C8040895089519
:104C3000FC0111821082938382830895DB011D920F
:104C40001C92DC011296ED91FC91139771836083A5
:104C500013967C936E9312970895FC018081918145
:104C6000DB018D939C93A081B181109741F08D91D0
:104C70009C9191838083892B11F4F383E2830895BF
:104C8000FC0180819181DB018D939C93892B11F430
:104C900073836283718360830895FC0111821082A3
:104CA000938382830895CF93DF931F921F92CDB792
:104CB000DEB71A821982F894BE016F5F7F4F8EECC7
:104CC00094E0CBDF89819A81009709F017D389811D
:104CD0009A81892B89F7BE016F5F7F4F82ED94E047
:104CE000BCDF89819A81009709F008D389819A8174
:104CF000892B89F778940F900F90DF91CF910895C9
:104D0000CF93DF931F921F92CDB7DEB71A8219821D
:104D1000F894BE016F5F7F4F8AEC94E09EDF89813B
:104D20009A81009709F0EAD289819A81892B89F7C3
:104D300078940F900F90DF91CF91089581E00895BE
:104D400090E080E00895EF92FF920F931F93CF932E
:104D5000DF931F921F92CDB7DEB71A82198280911E
:104D6000C90407EF1FEF8823A1F1F894BE016F5F1C
:104D70007F4F82ED94E071DF789489819A81EE24EF
:104D8000E394F12C892B51F4F894BE016F5F7F4FAF
:104D90008EEC94E062DF7894F12CE12C89819A8189
:104DA0000EEF1FEF0097A9F0FC014281538164E0F0
:104DB00070E076D68C01892B61F0F89469817A8154
:104DC000C701880F991F880F991F82539B4F58DF87
:104DD0007894C8010F900F90DF91CF911F910F91A0
:104DE000FF90EF9008950F931F93CF93DF9300D020
:104DF0001F92CDB7DEB71C821B821A821982809166
:104E0000C90407EF1FEF8823C1F0AE014D5F5F4F6C
:104E100064E070E0CE010196B6D68C01892B69F46E
:104E2000E981FA818B819C8193838283F8946981E3
:104E30007A818AEC94E002DF7894C8010F900F9099
:104E40000F900F90DF91CF911F910F910895BBD7D5
:104E5000049608958F929F92AF92BF92CF92DF9265
:104E6000EF92FF920F931F93CF93DF931F921F92A6
:104E7000CDB7DEB71A821982BC016F5F7F4F6330F6
:104E8000710598F0AA24AA94BA2CC5010F900F902E
:104E9000DF91CF911F910F91FF90EF90DF90CF9016
:104EA000BF90AF909F908F9008954115510551F399
:104EB000480159018A016C01CADF8815990511F76B
:104EC000E114F104F9F28E0D9F1DA816B906D0F277
:104ED0008091C9048823F1F0F894B50164507109F8
:104EE0009701AE014F5F5F4FC8010496E1D65C01A8
:104EF000892B71F489819A81F80193838283C60199
:104F0000880F991F880F991FB80182539B4F96DE17
:104F10007894BBCF87EFA82EBB24BA94B6CFAF92BC
:104F2000BF92CF92DF92EF92FF920F931F93CF9396
:104F3000DF931F921F92CDB7DEB71A821982892B99
:104F400009F047C06115710509F443C041155105C9
:104F500009F43FC02115310509F43BC001151105C5
:104F6000C1F18091C9048823B9F179016A015B011B
:104F7000F894BE016F5F7F4F8AEC94E06EDE789408
:104F800089819A81009759F1DC0112966D917C918B
:104F9000A8010496A6D68C01E981FA81D501ED938A
:104FA000FC93828193810496F601918380834FDF85
:104FB000D7018D939C93C8010F900F90DF91CF91F3
:104FC0001F910F91FF90EF90DF90CF90BF90AF9027
:104FD00008950FEF1FEFEFCF07EF1FEFECCF0EEFAE
:104FE0001FEFE9CFCF93DF93EC01672B71F4F4D679
:104FF0008C179D0760F0E7D62496C80FD91FE6D618
:105000008C0F9D1FDF91CF910895E3D6F1CF90E0F3
:1050100080E0F8CF0F931F93CF93DF932091C904C3
:1050200021112BC08B01EC018EEC94E001DE82EDAE
:1050300094E0FEDD8AEC94E0FBDD97D00097C1F4AC
:10504000CBD670E060E0CEDF47E752E062E070E090
:1050500081D1009769F48091770290917802CED641
:10506000B801CE0103D5009719F421E02093C904BB
:10507000DF91CF911F910F91089584EF9FEFF8CFAB
:10508000A8C6AAC6CF93DF93AAD6EC01892B11F448
:105090000ADE36DECE01DF91CF910895CF93DF9304
:1050A0009ED6EC01892B09F4FEDDCE01DF91CF9174
:1050B000089580917702909178020895CF93DF93BD
:1050C0008091C904D0E0C0E08823D1F09CD6EC01E7
:1050D000892BB1F4E8DD14DE80917702909178029B
:1050E000E7D1E8D2EC01892B59F48EEC94E0D5DDC0
:1050F00082ED94E0D2DD8AEC94E0CFDD1092C90419
:10510000CE01DF91CF910895EF92FF920F931F93FD
:10511000CF93DF93EC017A018B010F5F1F4F0E9D40
:10512000A0010F9D500D1E9D500D112470E060E0F8
:105130000E946F3C90E080E0F0E0E0E02FEFE816A6
:10514000F90639F4DF91CF911F910F91FF90EF9005
:1051500008951A8219822883309711F0D283C1836F
:105160000196FE01C00FD11FEACFCF92DF92EF92DE
:10517000FF920F931F93CF93DF930BE016E00C7F0A
:1051800043E050E069E772E08FE792E01CD489E7E2
:10519000E82E82E0F82E9FE7C92E92E0D92EC2E8D1
:1051A000D6E0D7014D915D917D01F601619171913C
:1051B0006F01198308835D834C835B834A837F83FC
:1051C0006E839B012F5F3F4F249FC001259F900D51
:1051D000349F900D1124998788870115110511F0CE
:1051E000C80192DF88859985080F191F2A96FFE765
:1051F000EF16F2E0FF06A9F6E8EDF4E080E391E0B7
:10520000DF019C011D9221503040E1F71092D7043C
:105210001092D6041092A1061092A0061092A50634
:105220001092A4061092A3061092A2061092A7064E
:105230001092A6061092A9061092A8061092AB062C
:105240001092AA061092AF061092AE061092AD060A
:105250001092AC061092B1061092B0061092B306EE
:105260001092B20610927F0610927E06109281066E
:105270001092800690E080E0DF91CF911F910F9116
:10528000FF90EF90DF90CF9008950097F1F0F894A1
:10529000AFE7B2E0E2E8F6E030E020E04D915D916A
:1052A00048175907A8F0428153814115510581F0F3
:1052B0008AE0829FF001839FF00D1124EE57F94F91
:1052C00080819181009759F4789490E080E008956E
:1052D0002F5F3F4F3A962330310501F7F5CFDC01C0
:1052E00011966D917C917183608341505109538374
:1052F0004283FC012193CF0178940895009749F1EE
:10530000DC018E91853041F4E0918006F0918106B8
:105310003097F9F0CD0119948530D8F4282F30E07A
:10532000F8948FEF8C938AE0829FF001839FF00DB9
:105330001124EE57F94F8081918112969C938E93A0
:105340001197B183A0838281938101969383828395
:1053500078940895CF92DF92EF92FF920F931F936C
:10536000CF93DF939C018BED94E08C7F4115510529
:1053700009F49BC02115310509F497C06115710529
:1053800009F493C07A01AB01B9016D5F7F4F6C7F67
:105390009B012F5F3F4F249F8001259F100D349F5D
:1053A000100D1124F8942091A0063091A106232B12
:1053B00059F42091A8063091A9062115310569F10B
:1053C0002017310708F058C02091AA063091AB068B
:1053D000232B91F42091A8063091A906820F931FE8
:1053E0002091B2063091B3062115310509F441C070
:1053F0002017310708F056C07894CFEFDFEF86EF23
:105400009FEFF701D183C083DF91CF911F910F915F
:10541000FF90EF90DF90CF900895C3E0D0E0C09070
:10542000D604D090D7042DE231E02C193D09201785
:10543000310710F32AE02C9FF0012D9FF00D11246D
:10544000EE57F94F9183808355834483538342837E
:105450007783668311870087009709F055DE0C0D6E
:105460001D1D1093D7040093D604789490E080E03B
:10547000C8CFC4E0D0E0D3CFC3E0D0E02AE02C9F77
:10548000F0012D9FF00D1124EE57F94F9183808389
:10549000558344835383428377836683009729F33C
:1054A00033DEE3CFC4E0D0E0E9CF8FEF9FEFACCFA6
:1054B0009C010397029708F069C0F89484E09AE091
:1054C000482F50E0241735070CF44DC091E08AE0D6
:1054D000829FF001839FF00D1124EE57F94F118246
:1054E00010821582148213821282178216829923E7
:1054F000B1F18091A0069091A106892BA9F4209189
:10550000A8063091A9062115310571F08091D604C5
:105510009091D704821B930B9093D7048093D60469
:105520001092A9061092A8068091AA069091AB0647
:10553000892BA9F42091B2063091B30621153105CB
:1055400071F08091D6049091D704821B930B9093B5
:10555000D7048093D6041092B3061092B2067894C2
:1055600090E080E00895949FF001959FF00D112444
:10557000EE57F94F40815181452B31F440855185DB
:10558000452B11F481509CCF90E0A1CF8FEF9FEF7E
:1055900008954115510549F1009739F161157105DB
:1055A00021F1F89420917E0630917F06232BB9F4E7
:1055B0002091800630918106232B89F490937F06F9
:1055C00080937E067093810660938006789425E030
:1055D00030E090E080E0FA013183208308957894F0
:1055E0002FEF3FEF86EF9FEFF6CF8FEF9FEF0895FE
:1055F000059769F4F89410927F0610927E06109237
:10560000810610928006789490E080E008958FEFF4
:105610009FEF08956115710519F4F0E0E0E011C005
:105620008530910581F4E0917E06F0917F063097F8
:10563000A1F3CB0101961995009779F3FC0185E060
:105640008193CF0108959C01235031092230310507
:1056500020F72AE0289FD001299FB00D1124AE57D2
:10566000B94F2D913C911197232BB9F216962D919C
:105670003C9117972617370780F2F89412962D91D0
:105680003C9113972115310529F0ED91FC9111976B
:10569000309711F47894C1CF4181528111965C9377
:1056A0004E932150310913963C932E931297819378
:1056B0007894C7CFE8E0F6E086E7DF011D928A958F
:1056C000E9F7E8EDF4E080E391E0DF019C011D9251
:1056D00021503040E1F71092D7041092D604E2E84E
:1056E000F6E082E3DF011D928A95E9F7EEE7F6E046
:1056F00084E0DF011D928A95E9F790E080E008954B
:10570000CF93DF93C0918502D0918602CF3FDC0713
:1057100059F423D4909386028093850297FF09C0A1
:10572000D0938602C093850284EF9FEFDF91CF91E3
:10573000089590E080E0FACF8230910528F48093BC
:10574000B40690E080E008958FEF9FEF08954F92A8
:105750005F926F927F92AF92BF92CF92DF92EF9261
:10576000FF920F931F93CF93DF931F921F92CDB79A
:10577000DEB71A821982009709F479C061157105A4
:1057800009F475C0209185023091860207EF1FEF62
:105790002F3F3F4F09F445C06B015C01412C512C58
:1057A0003201F12CE12C10E000E09E012F5F3F4F11
:1057B000A6014E195F09B5016E0D7F1D809185020E
:1057C000909186022ED4892B09F04BC089819A8151
:1057D000009741F4E114F10429F42091B406222346
:1057E00009F442C0E80EF91EEC14FD04D0F480E880
:1057F000481684E858068EE16806710420F560E0DA
:1058000070E0CB010E9415362AE0420E511C611C4B
:10581000711C0A3F4FEF140721F0043F8FEF180768
:10582000A1F4C8010F900F90DF91CF911F910F91BC
:10583000FF90EF90DF90CF90BF90AF907F906F90F0
:105840005F904F90089501EF1FEF81E090E0013FDE
:105850002FEF120711F090E080E0892B09F4A5CF1B
:10586000E0CF04EF1FEFDDCF0AEF1FEFDACF0FEF2E
:105870001FEFD7CF4F925F926F927F92AF92BF92FE
:10588000CF92DF92EF92FF920F931F93CF93DF930C
:105890001F921F92CDB7DEB71A821982009709F4C2
:1058A00079C06115710509F475C0209185023091A8
:1058B000860207EF1FEF2F3F3F4F09F445C06B01F2
:1058C0005C01412C512C3201F12CE12C10E000E064
:1058D0009E012F5F3F4FA6014E195F09B5016E0D66
:1058E0007F1D80918502909186024ED3892B09F00D
:1058F0004BC089819A81009741F4E114F10429F4A5
:105900002091B406222309F442C0E80EF91EEC14DB
:10591000FD04D0F480E4481682E458068FE068065F
:10592000710420F560E070E0CB010E9415362AE09A
:10593000420E511C611C711C0E3F4FEF140721F0E9
:10594000043F8FEF1807A1F4C8010F900F90DF916B
:10595000CF911F910F91FF90EF90DF90CF90BF906C
:10596000AF907F906F905F904F90089502EF1FEF80
:1059700081E090E0023F2FEF120711F090E080E00D
:10598000892B09F4A5CFE0CF04EF1FEFDDCF0EEF99
:105990001FEFDACF0FEF1FEFD7CF809185029091E5
:1059A00086028F3F980749F0D0D2892B49F48FEFB8
:1059B0009FEF909386028093850290E080E00895A7
:1059C00084EF9FEF0895CF92DF92EF92FF920F93B3
:1059D0001F93CF93DF9321E04115510509F020E09B
:1059E0004150510921112CC0DC01FB01D12CC12CEB
:1059F00021E022C03FEFC31AD30A7D010D911D9112
:105A0000E701EA80FB80E016F106A8F420813181ED
:105A1000E280F380F182E08233832283ED90FC9078
:105A200011979D0122503109E901F982E88211960E
:105A30001C930E9320E03296C416D506D8F2D2CF2E
:105A4000DF91CF911F910F91FF90EF90DF90CF905A
:105A50000895FC01680F791F90E080E0E617F707D2
:105A600009F408952191820F911DF8CF2091B50678
:105A7000211113C045DE009791F41092BB061092DD
:105A8000BA061092B9061092B8061092B706109294
:105A9000B60621E02093B506089584EF9FEF0895A0
:105AA000AF92BF92CF92DF92EF92FF920F931F932C
:105AB000CF93DF93009709F460C04630510508F496
:105AC0005CC02091B506C7EFDFEF222309F449C07F
:105AD0008C01060F171FF801C080D180C114D104BA
