:1000000005C100000C94A1310C94CC310C94F73153
:100010000C9422320C944D320C9478320C94A3320E
:100020000C94CE3224C1000022C1000020C1000087
:100030001EC100001CC100001AC1000018C1000050
:1000400016C1000014C1000012C1000010C1000060
:100050000EC100000CC100000AC100000C94F9326E
:1000600006C100000C94CD360C94033700C100008B
:10007000FEC00000FCC00000FAC00000F8C0000094
:10008000F6C00000F4C00000F2C00000F0C00000A4
:100090000C9459370C948F37EAC00000E8C0000078
:1000A000E6C00000E4C00000E2C00000E0C00000C4
:1000B000DEC00000DCC00000DAC00000D8C00000D4
:1000C000D6C00000D4C000000C94D52C0C94E537A9
:1000D0000C941B38CCC000000C9471380C94A738D9
:1000E000C6C0000000000A0B02090C0D0E08070331
:1000F00004010000000000000000000000000000FB
:1001000000000000000000000000000000000000EF
:1001100012111000000000000000000000000000AC
:100120000000000000000000000001021020200874
:100130000810204010204080020102010804020142
:1001400001020408102040808040201008040201B1
:10015000800402018040201008040201080402010A
:100160000102040810204080010204081020408091
:1001700005050505070508080808020202020A0A23
:100180000808040404040101010101010101030341
:10019000030303030303040707070C0C0C0C0C0CEC
:1001A0000C0C0202020206060606060606060B0BE9
:1001B0000B0B0B0B0B0B000020002300260029006B
:1001C0002C002F003200000100000301060109018C
:1001D00000002200250028002B002E0031003400F2
:1001E00002010000050108010B01000021002400AC
:1001F00027002A002D003000330001010000040117
:1002000007010A012C37B8374438D03811241FBEF3
:10021000CFEFD1E2DEBFCDBF00E00CBF13E0A0E026
:10022000B2E0E6E4F3E700E00BBF02C007900D92F6
:10023000A436B107D9F72BE0A4E6B3E001C01D92C4
:10024000A133B207E1F711E0C6E0D1E000E006C05B
:1002500021970109802FFE010E947039C230D10719
:1002600080E00807A9F70E94C72D0C94A139C8CED9
:10027000611102C00C943A356130E1F362E0FACFCB
:10028000662319F061E00C94763560E0FCCFCF93E3
:10029000282F8823E1F0CB01BA01CFEFC20FEC2F5A
:1002A000F0E0EC59FC4F2081213059F490580E9425
:1002B000402F9B01AC016C2F70E090E080E0CF916B
:1002C000A2C00E943B2F8C2FCF910C940034CF9171
:1002D00008950F931F938B019C0183E0369527951A
:1002E000179507958A95D1F706551C4F462F4770ED
:1002F00021E030E0F90102C0EE0FFF1F4A95E2F75E
:10030000AF01F80120812423CB010196211102C005
:1003100090E080E01F910F9108950F931F938B0140
:100320009C0183E036952795179507958A95D1F717
:10033000677081E090E001C0880F6A95EAF7F801E4
:10034000E655FC4F2081452B31F480958223808334
:100350001F910F910895822BFACF4F925F926F9267
:100360007F928F929F92AF92BF92CF92DF92EF9245
:10037000FF920F931F93CF93DF934B015C012901F1
:100380003A01670161E0882D0E943A35E401219627
:10039000AE01C501B401C1DF20E030E0A901C80110
:1003A000B6010E94BF3018168CF4F401EC59FC4FD2
:1003B00081E08083C801B6010E94402F6B01C30118
:1003C000B2010E94402FA601C40121D0CE01DF91CD
:1003D000CF911F910F91FF90EF90DF90CF90BF9042
:1003E000AF909F908F907F906F905F904F90089507
:1003F000882341F08150682F70E090E080E050E069
:1004000040E08BCF0895862FB9010C9400349C01F5
:10041000FC01EC51FF4FE491E150E231E0F4F0E0F7
:100420008827EA5EFD4F8F4F0C94703928022F0207
:10043000320249025E022B0273027F0283029A0299
:10044000AF02C402DB02F0022B0205031C033103DE
:1004500084B5806884BD60E0822F0C94763584B5C5
:100460008062F8CF809180008C7F826080938000D2
:1004700080918100807E8061682B60938100509321
:100480008700409386008091800080688093800080
:10049000E2CF809180008C7F826080938000809189
:1004A0008100807E8061682B60938100509387007B
:1004B00040938600809180008062E8CF8091800028
:1004C0008C7F82608093800080918100807E80613B
:1004D000682B609381005093870040938600809141
:1004E00080008860D3CF8091B00080688093B00096
:1004F0008091B100887F682B6093B100ACCF809170
:10050000B0008062F3CF809190008C7F82608093F6
:10051000900080919100807E8061682B60939100B3
:10052000509397004093960080919000806880934C
:10053000900091CF809190008C7F8260809390009A
:1005400080919100807E8061682B60939100509330
:10055000970040939600809190008062E8CF809150
:1005600090008C7F82608093900080919100807ECB
:100570008061682B609391005093970040939600A0
:10058000809190008860D3CF8091A0008C7F8260A2
:100590008093A0008091A100807E8061682B609391
:1005A000A1005093A7004093A6008091A00080680E
:1005B0008093A00050CF8091A0008C7F82608093B8
:1005C000A0008091A100807E8061682B6093A100D3
:1005D0005093A7004093A6008091A0008062E8CFCE
:1005E0008091A0008C7F82608093A0008091A10008
:1005F000807E8061682B6093A1005093A700409398
:10060000A6008091A0008860D3CF809120018C7FCC
:1006100082608093200180912101807E8061682B1F
:10062000609321015093270140932601809120017E
:100630008068809320010FCF809120018C7F8260A1
:100640008093200180912101807E8061682B6093DE
:10065000210150932701409326018091200180625F
:10066000E8CF809120018C7F82608093200180916F
:100670002101807E8061682B6093210150932701C6
:1006800040932601809120018860D3CFFC01A7818F
:10069000B0858C9191858923A481B5819C914081FD
:1006A0005181628173812681922359F081110BC09F
:1006B0004F5F5F4F6F4F7F4F4083518362837383E0
:1006C00008958111F5CF4150510961097109F4CFA5
:1006D00084EB93E0DBCF8FEB93E0D8CF8AEC93E011
:1006E000D5CF85ED93E0D2CFFC01A481B5818C916B
:1006F00096818923A781B0859C9140815181628137
:1007000073812185922359F0882359F04F5F5F4F01
:100710006F4F7F4F40835183628373830895882393
:10072000A9F34150510961097109F4CF84EB93E0B9
:10073000DBCF8FEB93E0D8CF8AEC93E0D5CF85ED7C
:1007400093E0D2CF0F931F93CF93DF93D82FC62F71
:100750008A01A091B3038BE0A89FD0011124AC546F
:10076000BC4F1D921D921D921C92139781E01A9608
:100770008C931A978D2F90E0FC01E65DFE4FE4917B
:100780001696EC931697FC01E059FE4FE491F0E0C9
:10079000EE0FFF1FEA54FE4F8591949115969C939E
:1007A0008E931497862F90E0FC01E65DFE4FE49156
:1007B0001996EC931997FC01E059FE4FE491F0E093
:1007C000EE0FFF1FEA54FE4F8591949118969C936B
:1007D0008E93179760E08D2F0E943A3560E08C2F42
:1007E0000E943A358091B303813009F43FC0A8F0EC
:1007F000823009F462C0833009F486C08091B3036B
:1008000091E0980F9093B303F801808390E080E02B
:10081000DF91CF911F910F91089580E0D23049F080
:1008200081E0D33031F08EEE8D0F8430D8F487E143
:100830008D1B41E050E068E673E00E94273180E0C4
:10084000C23049F081E0C33031F08EEE8C0F84303D
:1008500058F487E18C1B41E050E066E973E00E94A8
:100860002731CCCF8FEFE5CF8FEFF5CF80E0D230BF
:1008700049F081E0D33031F08EEE8D0F8430C8F432
:1008800087E18D1B41E050E06BE673E00E94273169
:1008900080E0C23049F081E0C33031F08EEE8C0F41
:1008A000843048F487E18C1B41E050E069E973E053
:1008B000D6CF8FEFE7CF8FEFF7CF80E0D23049F080
:1008C00081E0D33031F08EEE8D0F8430C8F487E1B3
:1008D0008D1B41E050E06EE673E00E94273180E01E
:1008E000C23049F081E0C33031F08EEE8C0F84309D
:1008F00048F487E18C1B41E050E06CE973E0AFCF36
:100900008FEFE7CF8FEFF7CF80E0D23049F081E073
:10091000D33031F08EEE8D0F8430C8F487E18D1B1B
:1009200041E050E061E773E00E94273180E0C2308F
:1009300049F081E0C33031F08EEE8C0F843048F402
:1009400087E18C1B41E050E06FE973E088CF8FEFC7
:10095000E7CF8FEFF7CF9BE0899FF0011124EC5494
:10096000FC4F80819181A281B381FB0180839183BF
:10097000A283B38390E080E008959BE0899FF0011B
:100980001124EC54FC4F108211821282138290E0E9
:1009900080E0089590E080E0089590E080E0089580
:1009A0000F931F93009709F48AC06115710509F42C
:1009B00086C00091800210918102209182023091C4
:1009C00083020E3F1F4F2F4F3F4F09F06AC0DB01DC
:1009D0004D915D916D917C91409380025093810285
:1009E0006093820270938302409180025091810251
:1009F0006091820270918302DC011296ED91FC916C
:100A000080819181A281B3818093EB049093EC0467
:100A1000A093ED04B093EE0484819581A681B78103
:100A20008093E7049093E804A093E904B093EA0468
:100A300080859185A285B3858093E3049093E40437
:100A4000A093E504B093E60484859585A685B785D3
:100A50008093DF049093E004A093E104B093E20458
:100A60001092DB041092DC041092DD041092DE047C
:100A70000E9479108EE990E19093E1038093E00366
:100A80009093E3038093E2030E94680F009731F490
:100A900021E030E03093F0042093EF041F910F9198
:100AA000089500918002109181022091820230917C
:100AB0008302FB01008311832283338395CF8FEF61
:100AC0009FEFECCF8F929F92AF92BF92CF92DF9227
:100AD000EF92FF921F93CF93DF934B015C01109134
:100AE000F20482E090E09093F0048093EF0481148C
:100AF0009104A104B10441F48091F204811104C075
:100B00008091F104C1E08111C0E0C12CD12C7601AB
:100B10008091F204811106C08091F104811102C01C
:100B2000CC23D9F083E090E09093F0048093EF041D
:100B3000CC2381F1CCE9DFEF111102C00E94031434
:100B4000CE01DF91CF911F91FF90EF90DF90CF907A
:100B5000BF90AF909F908F9008956AE070E080E022
:100B600090E00E94683380E1C80E87E2D81EE11C45
:100B7000F11C8FEF88169806A806B80631F0C1E080
:100B80008C149D04AE04BF0408F0C0E080E00E9415
:100B90009C0FBECFD0E0C0E0CFCFCF92DF92EF92DC
:100BA000FF920F931F93CF93DF938F3F910511F027
:100BB00008F051C02091EF043091F004233031054A
:100BC00039F02091EF043091F0042130310531F4F7
:100BD00024E030E03093F0042093EF046A017B01BD
:100BE000EC0182309105A8F011E0AE01C701B60119
:100BF0000E94670FAB01BC01CE011123F9F0DF9118
:100C0000CF911F910F91FF90EF90DF90CF900C94B8
:100C100028168C01000F111F00521C4FD8018D9116
:100C20009C91892B09F30E9432160297E9F6D801AC
:100C3000ED91FC91CE011995182FD7CF0E944A163D
:100C400090E080E0DF91CF911F910F91FF90EF90A6
:100C5000DF90CF9008958FEF9FEFF4CF80E00C945A
:100C60009C0FCF93DF9386E090E09093F004809305
:100C7000EF040E94F50FEC01E0EEF3E084E0DF0109
:100C80001D928A95E9F70E949B131092F00410922E
:100C9000EF04CE01DF91CF9108958091F104089582
:100CA0008091DA04089560938002709381028093AA
:100CB00082029093830290E080E008954F925F92C9
:100CC0006F927F928F929F92AF92BF92CF92DF925C
:100CD000EF92FF92CF93DF9300D01F92CDB7DEB794
:100CE0004B015C0169017A01E9D78823E9F0809022
:100CF000230B9090240BA090250BB090260BC501E0
:100D0000B4010F900F900F900F90DF91CF91FF9053
:100D1000EF90DF90CF90BF90AF909F908F907F909B
:100D20006F905F904F900895C701B601C7D78111AA
:100D3000DECFC501B4017DD78111D9CFC701B6017E
:100D400078D78111DCCF20E030E0A901C701B601DE
:100D50000E94CF2E87FF4CC0C701B6010E94BC2E57
:100D60002B013C01A3019201C701B6010E94CF2EC5
:100D7000882309F44CC0A7019601C501B4010E9463
:100D8000D32E2B013C01E89477F820E030E040E0DE
:100D90005FE3C301B2010E94582E0E94A92F9B015C
:100DA000AC01C301B2010E94572E9B01AC015F77D9
:100DB00029833A834B835C8320E030E040E054E3B6
:100DC000C301B2010E94C3309B01AC0169817A81E9
:100DD0008B819C810E94BF301816CCF020E030E05F
:100DE000A901C501B4010E94C3304B015C0187CF4A
:100DF000C701B6010E94A92F2B013C0120E030E081
:100E0000A901C701B6010E94CF2E8111ABCFA70166
:100E10009601C501B4010F900F900F900F90DF91D4
:100E2000CF91FF90EF90DF90CF90BF90AF909F90C9
:100E30008F907F906F905F904F900C94C32FCF92C4
:100E4000DF92EF92FF926B017C019F7720E030E010
:100E500040E859E50E94CF2E87FF2BC020E030E00C
:100E600040E05FE3C701B6010E94BF3087FD0EC0BE
:100E700020E030E040E05FE3C701B6010E94582E59
:100E8000FF90EF90DF90CF900C94A92F20E030E0FE
:100E900040E05FEBC701B6010E94BF30181684F432
:100EA00020E030E0A901C701B6010E94C3306B0108
:100EB0007C01C701B601FF90EF90DF90CF900895BD
:100EC00020E030E040E05FE3C701B6010E94572E0A
:100ED000FF90EF90DF90CF900C94BC2E2F923F921A
:100EE0004F925F926F927F928F929F92AF92BF923A
:100EF000CF92DF92EF92FF920F931F93CF93DF93E6
:100F000000D000D01F921F92CDB7DEB78091B50AF6
:100F100081111092B50ABE016F5F7F4F8091B60AB2
:100F20001ADD69817A818B819C810E946E2F60938A
:100F3000EF0A7093F00A8093F10A9093F20A2091DD
:100F40003C0230913D0240913E0250913F020E948E
:100F5000C3302091400230914102409142025091B1
:100F600043020E94C3306093F30A7093F40A8093A3
:100F7000F50A9093F60A209144023091450240917F
:100F80004602509147020E94582E6B017C01C0928C
:100F9000F70AD092F80AE092F90AF092FA0A209140
:100FA00048023091490240914A0250914B020E94FE
:100FB000BF3087FDE0C08090140290901502A09091
:100FC0001602B09017022091180230911902409138
:100FD0001A0250911B02C701B6010E94582EA501AA
:100FE00094016CDE9B01AC0160911C0270911D02AA
:100FF00080911E0290911F020E94582E6093FB0A5E
:101000007093FC0A8093FD0A9093FE0A8091BD0ABA
:1010100081111092BD0ABE016F5F7F4F8091BE0AA1
:101020009ADC69817A818B819C810E946E2F60930A
:10103000FF0A7093000B8093010B9093020B209199
:101040004C0230914D0240914E0250914F020E944D
:10105000C3306093030B7093040B8093050B909344
:10106000060B209150023091510240915202509152
:1010700053020E94C3306B017C01C092070BD092D7
:10108000080BE092090BF0920A0B20915C02309160
:101090005D0240915E0250915F020E94BF301816BF
:1010A0000CF08BC08090540290905502A090560294
:1010B000B090570220912C0230912D0240912E02C7
:1010C00050912F02C701B6010E94582EA50194012C
:1010D000F5DD9B01AC01609130027091310280918D
:1010E0003202909133020E94582E60930B0B709342
:1010F0000C0B80930D0B90930E0BE091B404F091C8
:10110000B504C080D180E280F3806090BF0A709007
:10111000C00A8090C10A9090C20A1091C70A00913B
:10112000C80AB090C90AA090CA0AA7019601B301E3
:10113000C4010E94BF30212F302F4B2D5A2D87FD27
:101140005EC0C701B6010E94CF2E18160CF0CCC0AD
:10115000212F302F4B2D5A2DB301C4010E94CF2EC9
:1011600087FD53C02091CB0A3091CC0A4091CD0A23
:101170005091CE0A61C08090200290902102A090F0
:101180002202B09023022091240230912502409146
:10119000260250912702C701B6010E94582EA501D0
:1011A00094018CDD9B01AC016091280270912902B1
:1011B00080912A0290912B021FCF8090580290902C
:1011C0005902A0905A02B0905B02209134023091F3
:1011D00035024091360250913702C701B6010E9494
:1011E000582EA50194016ADD9B01AC016091380283
:1011F0007091390280913A0290913B0274CFB30111
:10120000C4010E94CF2E87FF0BC0212F302F4B2D02
:101210005A2DC701B6010E94BF3018160CF4A2CF98
:101220002091C30A3091C40A4091C50A5091C60A60
:10123000162D072DB82CA92C6091070B7091080B67
:101240008091090B90910A0B0E94572E2B013C01B3
:10125000212F302F4B2D5A2DC701B6010E94572E3A
:101260009B01AC01C301B2010E94D32E6D837E832A
:101270008F8398871091CF0A0091D00A3090D10ABD
:101280002090D20AB090D70AA090D80A9090D90A9C
:101290008090DA0AA7019601612F702F832D922D7D
:1012A0000E94BF302B2D3A2D492D582D87FD21C08E
:1012B000C701B6010E94CF2E18160CF0F6C12B2DD7
:1012C0003A2D492D582D612F702F832D922D0E947C
:1012D000CF2E87FD16C04090DB0A5090DC0A60904C
:1012E000DD0A7090DE0A21C01D821E821F821886D0
:1012F000C1CF612F702F832D922D0E94CF2E87FF9B
:101300000AC02B2D3A2D492D582DC701B6010E9438
:10131000BF30181604F34090D30A5090D40A60905E
:10132000D50A7090D60A580141012B2D3A2D492D2E
:10133000582DC701B6010E94572E6B017C01A301F5
:1013400092016091F30A7091F40A8091F50A9091EC
:10135000F60A0E94572EA70196010E94D32E6B0118
:101360007C018090FB0A9090FC0AA090FD0AB0904E
:10137000FE0AC501B4019F77209164023091650295
:1013800040916602509167020E94BF3018160CF01F
:1013900090C18091600290916102A0916202B0912F
:1013A000630280930F0B9093100BA093110BB093DB
:1013B000120B20910F0B3091100B4091110B50919B
:1013C000120B609168027091690280916A0290919B
:1013D0006B020E94C3305B018C01C0906C02D09004
:1013E0006D02E0906E02F0906F029B01AC01C701AC
:1013F000B6010E94CF2E87FD12C0C0907002D0901F
:101400007102E0907202F09073029501A801C70189
:10141000B6010E94BF30181614F065017801A701CB
:10142000960160917C0270917D0280917E02909184
:101430007F020E94CF2E18160CF4A2C18090740275
:1014400090907502A0907602B090770211E020E0B3
:1014500030E0A901C501B4010E94CF2E811110E036
:10146000612F87E00E944001C501B401E8DC4B0117
:101470005C0120E030E040E853E40E94CF2E6FEFA3
:1014800087FF0EC020E030E0A901C501B4010E9431
:10149000BF3060E087FD04C0C501B4010E94402F49
:1014A00088E00E944001E894F7F8C092130BD092B4
:1014B000140BE092150BF092160B66E070E080E0E2
:1014C00090E00E9469018C019093AE0A8093AD0A6E
:1014D000C090130BD090140BE090150BF090160BEE
:1014E00020E030E04FE753E4C701B6010E94CF2E61
:1014F00018160CF44EC120E030E0A901C701B60176
:101500000E94BF3087FD4CC1B701A601C8010E94EF
:1015100047018091BF0A9091C00AA091C10AB09181
:10152000C20A8D839E83AF83B887C0901F0BD09073
:10153000200BE090210BF090220BA7019601BC013B
:10154000CD010E94CF2E0091B4041091B5048111F9
:101550002BC1F80180819181A281B3818093BF0A60
:101560009093C00AA093C10AB093C20AE3ECFAE0D8
:101570008091070B9091080BA091090BB0910A0B79
:1015800080839183A283B3838091CF0A9091D00A04
:10159000A091D10AB091D20A8D839E83AF83B88780
:1015A0009C01AD01C701B6010E94CF2ED8018D90DC
:1015B0009D90AD90BC9081112AC18092CF0A9092EB
:1015C000D00AA092D10AB092D20AE3EDFAE080915B
:1015D000F30A9091F40AA091F50AB091F60A80837B
:1015E0009183A283B3834091A9045091AA0460918E
:1015F000AB047091AC0481E090E0CFDA6091A1047B
:101600007091A2048091A3049091A4046F5F7F4F16
:101610008F4F9F4F6093A1047093A2048093A30403
:101620009093A4040091B4041091B5040E946C2F0F
:101630009B01AC016091A5047091A6048091A70460
:101640009091A8040E94C330F80160837183828363
:1016500093838091A9049091AA04A091AB04B091C6
:10166000AC040196A11DB11D8093A9049093AA0416
:10167000A093AB04B093AC0428960FB6F894DEBFE9
:101680000FBECDBFDF91CF911F910F91FF90EF90D3
:10169000DF90CF90BF90AF909F908F907F906F9092
:1016A0005F904F903F902F900895C12CD12C7601E0
:1016B00058CE6091000270910102809102029091D7
:1016C0000302905820910B0B30910C0B40910D0BA5
:1016D00050910E0B0E94C3302B013C01609104021B
:1016E00070910502809106029091070290582D8119
:1016F0003E814F8158850E94C3309B01AC01C301DC
:10170000B2010E94582E2B013C0160910802709199
:10171000090280910A0290910B029058A501940150
:101720000E94C3309B01AC01C301B2010E94582E3C
:101730004B015C0160910C0270910D0280910E02D0
:1017400090910F029058A70196010E94C3309B010F
:10175000AC01C501B4010E94582E209110023091B5
:10176000110240911202509113020E94C330609303
:101770000F0B7093100B8093110B9093120B19CEDB
:101780008090780290907902A0907A02B0907B02CB
:101790005DCEC12CD12C8FE7E82E83E4F82EB4CE99
:1017A000C12CD12C7601B0CE4090C70A5090C80A07
:1017B0006090C90A7090CA0AD8018D909D90AD9032
:1017C000BC90A3019201C701B6010E94CF2E8111E6
:1017D0000BC08092C70A9092C80AA092C90AB09220
:1017E000CA0AEBECFAE0C4CEA30192016D817E81BE
:1017F0008F8198850E94CF2E87FFEBCF8092BF0A02
:101800009092C00AA092C10AB092C20AAFCE409094
:10181000D70A5090D80A6090D90A7090DA0AA301CA
:101820009201C701B6010E94CF2E81110BC0809298
:10183000D70A9092D80AA092D90AB092DA0AEBEDB0
:10184000FAE0C5CEA30192016D817E818F819885DA
:101850000E94CF2E87FFEBCFB0CE8F929F92AF9298
:10186000BF92DF92EF92FF920F931F93CF93DF937C
:1018700084E090E0A7D1E6E0F4E081EB94E0978388
:101880008683C4EBD4E0D0934704C093460405EAB2
:1018900014E0158B048BF0937104E0937004F583CE
:1018A000E48321E030E0DC012D933C931092870427
:1018B00010928E0489EB92E09387828786EB94E006
:1018C0009983888340E050E060E87FEB4093AD046B
:1018D0005093AE046093AF047093B0044DEC5CEC95
:1018E0006CEC7DE3D8014D935D936D937C931397DE
:1018F000CFE8D4E08AE393E3AAE8B7E38883998347
:10190000AA83BB8389E49EEEADE6B8E88093930496
:1019100090939404A0939504B09396048BE398E17C
:10192000A0E8BAE78093970490939804A093990451
:10193000B0939A0483E290E9AAE8B5EA80939B0405
:1019400090939C04A0939D04B0939E04AAEFB3E0EF
:10195000B383A283E4EEF3E01196FC93EE938BEC59
:1019600092E091838083938382839583848397839A
:1019700086839187808793878287958784879787D7
:101980008687918B808B938B828B958B848B8FE951
:1019900094E015969C938E9314971396DC93CE93B4
:1019A00012974FEF5FEFBA0118964D935D936D93C9
:1019B0007C931B9780911F0B9091200BA091210B82
:1019C000B091220BC7E9DAE088A799A7AAA7BBA71D
:1019D00088AB99ABAAABBBAB88AF99AFAAAFBBAF93
:1019E0008093D70A9093D80AA093D90AB093DA0AC1
:1019F0001F8E188E812C912C54018394898E9A8E7F
:101A0000AB8EBC8E46EB5AE062E183E10E94A203FA
:101A1000DD24D394DD8E1E8E8F8D0E94BD041FA207
:101A200018A289A29AA2ABA2BCA24EEB5AE064E132
:101A300085E10E94A203DDA21EA28FA10E94BD0427
:101A4000188689869A86AB86BC8661E087E00E940C
:101A50003801DD86188289829A82AB82BC8261E07D
:101A600088E00E943801DD82188A898A9A8AAB8AC6
:101A7000BC8AE12CF12C8701A801970166E070E097
:101A800080E090E00E94AD019F8B8E8BDD8ADF911C
:101A9000CF911F910F91FF90EF90DF90BF90AF908B
:101AA0009F908F9008958091AF0A811114C081E0BA
:101AB0008093AF0A8091B00A9091B10AA091B20AC6
:101AC000B091B30A0197A105B10529F48091B40A38
:101AD00081110E94CA048091B70A811114C081E06B
:101AE0008093B70A8091B80A9091B90AA091BA0A76
:101AF000B091BB0A0197A105B10529F48091BC0AF8
:101B000081110E94CA0480919F0A811103C081E063
:101B100080939F0A8091970A811103C081E080938E
:101B2000970A8091A70A81112EC081E08093A70AAD
:101B30008091A80A9091A90AA091AA0AB091AB0A33
:101B40000197A105B105F9F48091AC0A8823D9F079
:101B500066E070E080E090E00E9469019093AE0A38
:101B60008093AD0A40E050E0BA010E94470166E070
:101B700070E080E090E00E9469019093AE0A80934B
:101B8000AD0A0C94F801089560E070E080E89FE7EA
:101B9000089560E070E080E89FE7089560E070E0FD
:101BA00080E89FEF089560E070E080E89FEF08957F
:101BB00060E070E080EC9FEF089560E070E080EC02
:101BC0009FEF0895F5DF6093230B7093240B8093B0
:101BD000250B9093260BF1DF6093170B7093180B76
:101BE0008093190B90931A0BCFDF60931F0B7093A8
:101BF000200B8093210B9093220BCBDF60931B0B68
:101C000070931C0B80931D0B90931E0BC7DF60938A
:101C1000270B7093280B8093290B90932A0BC3DF1B
:101C200060932B0B70932C0B80932D0B90932E0BAA
:101C30000895CF92DF92EF92FF92CF936B017C01D8
:101C4000AC019B0160911F0B7091200B8091210BC7
:101C50009091220B0E94CF2EC1E0882371F0A70142
:101C600096016091270B7091280B8091290B909120
:101C70002A0B0E94CF2E8111C0E08C2FCF91FF90B4
:101C8000EF90DF90CF9008950F931F938B019C01ED
:101C90000027112720783F770115110520483F477D
:101CA00049F4AB01BC016F77772781E0452B462BC8
:101CB000472B09F480E01F910F910895E5CF4F92D3
:101CC0005F926F927F928F929F92AF92BF92CF92CC
:101CD000DF92EF92FF920F931F93F8944090CA0403
:101CE0005090CB046090CC047090CD04C090BE04A2
:101CF000D090BF04E090C004F090C1044130510581
:101D000009F0A6C09B01AC01241935094609570901
:101D100029013A010091C6041091C7042091C8041A
:101D20003091C90448015901840C951CA61CB71CAC
:101D300080169106A206B306A0F40091C204109189
:101D4000C3042091C4043091C5040F5F1F4F2F4F6F
:101D50003F4F0093C2041093C3042093C4043093F4
:101D6000C5048092C6049092C704A092C804B092A1
:101D7000C9040091C2041091C3042091C40430919D
:101D8000C5048092CE049092CF04A092D004B09269
:101D9000D1040093D2041093D3042093D40430933D
:101DA000D5046093CA047093CB048093CC049093C1
:101DB000CD04A301920160EA76E881E090E00E9400
:101DC0002B396C0D7D1D8E1D9F1D6093BE0470937D
:101DD000BF048093C0049093C104009180021091CD
:101DE000810220918202309183020F3F1F4F2F4FBB
:101DF0003F4FF1F000918002109181022091820208
:101E0000309183020E3F1F4F2F4F3F4F89F0C090FC
:101E10008002D0908102E0908202F090830221E063
:101E20008C149D04AE04BF0408F420E02093DA046F
:101E300078941F910F91FF90EF90DF90CF90BF901B
:101E4000AF909F908F907F906F905F904F9008958C
:101E50004B015C0184189508A608B708A3019201FC
:101E6000261B370B480B590B64157505860597051E
:101E7000E0F082169306A406B50640F420E030E0B8
:101E8000A90181149104A104B104A1F460EA76E8E7
:101E900081E090E00E942B39A7019601261B370BA9
:101EA000480B590BCA01B901C3CF82169306A40689
:101EB000B50660F7A501940160EA76E881E090E05C
:101EC0000E942B396C0D7D1D8E1D9F1DB1CFF7CE4D
:101ED000CF93DF9300D01F92CDB7DEB71C821B8259
:101EE0001A8219821092D6041092D7041092D80444
:101EF0001092D904BE016F5F7F4FCE0103960E94FE
:101F0000692C69817A818B819C810E945725009779
:101F100061F4BE016F5F7F4FCE0103960E94752C66
:101F200069817A818B819C812BD50F900F900F90C6
:101F30000F90DF91CF910895FF920F931F93CF934E
:101F4000DF93082F60E070E0CB010E946833FF242C
:101F5000F3940E944024EC01892B89F010E0CE3FDD
:101F60008FEFD80769F0002361F160E070E0CB01EA
:101F70000E94683381E090E0892B59F322C011E080
:101F800022D5EC01892B21F0CE3F8FEFD80759F7EE
:101F900011111EC011E0229609F410E00E94F023F6
:101FA000EC01892B21F0CE3F8FEFD807E1F611111C
:101FB00011C011E0CE3F8FEFD80709F410E00111F6
:101FC0000BC0CE01DF91CF911F910F91FF9008952B
:101FD00011E0E4CF11E0F3CF60E070E0CB010E94AC
:101FE00068331F25812F90E0C7CFCF93DF93809177
:101FF000DA04882321F060E070E0CB0149D632D6C4
:10200000D0E0C0E0892B71F06AE070E080E090E001
:102010000E94683381E090DF25D62196C03D27E0FD
:10202000D20781F724D60E94AB251092F2041092B9
:10203000F1041092EB041092EC041092ED04109253
:10204000EE041092E7041092E8041092E904109252
:10205000EA041092E3041092E4041092E504109252
:10206000E6041092DF041092E0041092E104109252
:10207000E2041092DB041092DC041092DD04109252
:10208000DE044EEF5FEF6FEF7FEF409380025093DF
:10209000810260938202709383021092DA04EEEC64
:1020A000F4E028E0DF011D922A95E9F71092CA04B6
:1020B0001092CB041092CC041092CD041092C6045E
:1020C0001092C7041092C8041092C9041092C2045E
:1020D0001092C3041092C4041092C5041092BE045E
:1020E0001092BF041092C0041092C104DF91CF91EE
:1020F00008951092FE041092FF04109200051092B1
:1021000001051092FD0480910605909107059093BA
:10211000FC048093FB041092FA041092F9041092CC
:10212000F5041092F6041092F7041092F80410923D
:1021300003051092020590E080E00895CF92DF92AF
:10214000EF92FF920F931F93CF938C01019709F0A9
:1021500055C020910605309107058091FB049091B0
:10216000FC0440910605509107055093FC044093F0
:10217000FB042817390781F01092FA041092F90431
:102180001092F5041092F6041092F7041092F804DD
:1021900010920305109202058091060590910705A3
:1021A000019761F58091020590910305892B21F437
:1021B00080918402811112C08091020590910305E3
:1021C0000197E1F48091F5049091F604A091F70451
:1021D000B091F8040197A105B10581F41092F504BE
:1021E0001092F6041092F7041092F80410928402F0
:1021F00082E090E0909303058093020580910605AC
:1022000090910705019709F01CC180911C059091E0
:102210001D058017910709F014C180911805909150
:102220001905A0911A05B0911B05009709F409C181
:102230002091170521110DC04091180550911905E5
:1022400060911A0570911B05452B462B472B09F40D
:10225000F8C020910205309103052230310509F0C4
:10226000F0C02091F9042111ECC0FC01C080D180A4
:10227000E280F3808091FD04882309F4D3C080912B
:10228000090590910A05892B09F4FEC020910905E2
:1022900030910A0581E02230310509F080E020917B
:1022A000090530910A05C1E02130310549F020913E
:1022B000090530910A05C1E02230310509F0C0E07E
:1022C000882309F456C020911305309114054091DC
:1022D000150550911605C701B6010E94BF3087FD54
:1022E00014C02091130530911405409115055091AB
:1022F00016056091FE047091FF0480910005909195
:1023000001050E94CF2E87FD22C020911305309138
:1023100014054091150550911605C701B6010E949C
:10232000BF30181634F520911305309114054091F3
:102330001505509116056091FE047091FF0480917F
:102340000005909101050E94CF2E811112C080914D
:102350000B0590910C05A0910D05B0910E05892BF0
:102360008A2B8B2B19F481E08093FA0481E080930F
:10237000F904CC2309F456C02091130530911405BB
:102380004091150550911605C701B6010E94CF2E48
:1023900087FF14C020911305309114054091150555
:1023A000509116056091FE047091FF048091000524
:1023B000909101050E94BF3087FF22C02091130534
:1023C000309114054091150550911605C701B601CD
:1023D0000E94CF2E811126C0209113053091140543
:1023E00040911505509116056091FE047091FF040F
:1023F00080910005909101050E94BF30181694F459
:1024000080910B0590910C05A0910D05B0910E05E2
:10241000892B8A2B8B2B19F481E08093FA0481E0BD
:102420008093F90481E09091F904911180E0809308
:10243000FD04C092FE04D092FF04E0920005F092E9
:1024400001050130110509F067C1809102059091E5
:102450000305892BD9F4109208051092F904809194
:102460008402882379F082E090E0909303058093C2
:10247000020510928402209106053091070581E043
:10248000232BE9F080E01BC081E009CF1092840289
:1024900080910805882349F01092FA0410920305F0
:1024A0001092020510920805EDCF809106059091DB
:1024B0000705892BE1F08091F9041092F90420912D
:1024C0000205309103052230310509F45EC088F41D
:1024D0002115310509F448C02130310509F4F3C054
:1024E0001092FA041092F9041092080538C081E0A5
:1024F000E6CF2330310509F4B1C02430310581F72E
:102500004091F5045091F6046091F7047091F8043D
:10251000411551056105710561F04150510961098D
:1025200071094093F5045093F6046093F704709397
:10253000F8044091F5045091F6046091F70470910D
:10254000F804452B462B472BD9F4209104053091F4
:1025500005052130310509F046C01092FA041092A9
:102560000305109202050CC080918402882341F07B
:1025700082E090E09093030580930205109284021C
:102580001092F3048091FA04CEC08823C9F380919D
:102590000B0590910C05A0910D05B0910E05181634
:1025A00019061A061B060CF07DC080910605909155
:1025B0000705019709F076C080910B0590910C05F5
:1025C000A0910D05B0910E058093F5049093F6044B
:1025D000A093F704B093F80483E090E09093030590
:1025E00080930205CDCF40910F0550911005609169
:1025F000110570911205452B462B472BA9F010921F
:10260000FA0480910F0590911005A0911105B091E9
:1026100012058093F5049093F604A093F704B09309
:10262000F80481E090E0DACF882399F08091850268
:1026300090918602A0918702B09188028093F50460
:102640009093F604A093F704B093F80484E090E02C
:10265000C5CF1092FA0482E090E0C0CF8091F504DB
:102660009091F604A091F704B091F8040097A105A9
:10267000B10559F00197A109B1098093F504909330
:10268000F604A093F704B093F8048091F5049091B8
:10269000F604A091F704B091F804892B8A2B8B2BB8
:1026A00009F06ECF8091850290918602A0918702F9
:1026B000B0918802892B8A2B8B2B09F44ECF81E0B5
:1026C0008093FA04B3CF4091F5045091F6046091E1
:1026D000F7047091F804411551056105710561F029
:1026E00041505109610971094093F5045093F60472
:1026F0006093F7047093F8044091F5045091F60448
:102700006091F7047091F804452B462B472B09F094
:1027100037CF8111C7CF9FCF8091F304882309F46D
:1027200031CF8091F404CF911F910F91FF90EF90E2
:10273000DF90CF9008951092FE041092FF04109243
:102740000005109201051092FD04109203051092ED
:1027500002051092FC041092FB0410921D051092C9
:102760001C051092FA041092F9041092F5041092CC
:10277000F6041092F7041092F8041092F4041092E8
:10278000F304109218051092190510921A05109270
:102790001B05109217051092130510921405109244
:1027A00015051092160588EE93E0A0E0B0E0809346
:1027B000850290938602A0938702B09388021092BC
:1027C0000F0510921005109211051092120510922B
:1027D0000B0510920C0510920D0510920E0510922B
:1027E0000A051092090581E0809384021092080581
:1027F0001092070510920605109205051092040527
:1028000090E080E008958091060590910705892B5E
:10281000E1F480918402882351F0809108058111B0
:1028200006C081E08093F4048093F30408958091BE
:102830000805882341F080918402811104C0109220
:10284000F40481E0F1CF1092F304089582E090E067
:10285000FA01918380838FEF9FEF0895CF93DF93E9
:10286000EA01009711F00E94CB261982188290E0AD
:1028700080E0DF91CF910895DB01009719F48FEF8D
:102880008C9308952EEF2C93FC017096E031F105A6
:1028900008F037C08827E05BFB4E8F4F0C947039EF
:1028A0007F147D147B1479147714751471147314C8
:1028B0006F146D146B14681464146014661481141E
:1028C00080E311968C93089589E2FBCF82E2F9CFE1
:1028D00011961C92089583E2F4CF81E2F2CF81E158
:1028E000F0CF87E2EECF8AE2ECCF80E1EACF84E25C
:1028F000E8CF88E2E6CF86E2E4CF81E3E2CF83E36C
:10290000E0CF80E2DECF80912A0590912B050895DB
:1029100090932B0580932A050895809129050895A9
:1029200090912905892B809329050895982F9095DA
:102930008091290589238093290508958091280590
:1029400008958091260590912705089561157105D8
:1029500059F0FB0130E020E070E060E0241735071B
:1029600019F06115710511F0CB010895A081B181B5
:10297000A817B90709F4BF012F5F3F4F3696EECF76
:1029800080912C0581111CC060D266D290931F05E6
:1029900080931E050E94C91E0E94DB1E9093230592
:1029A000809322050E9458230E945F239093210563
:1029B0008093200581E080932C0590E080E00895CD
:1029C00084EF9FEF08958F929F92AF92BF92CF9224
:1029D000DF92EF92FF920F931F93CF93DF9300D07C
:1029E00000D000D01F92CDB7DEB71A8619861886A0
:1029F0001F821E821D821C821B821A821982809174
:102A00002C0507EF1FEF882309F49CC08E010D5F92
:102A10001F4F9E012B5F3F4FAE01495F5F4FBE01CD
:102A2000675F7F4F90E080E00E94DC248C0100977C
:102A300021F00596029708F0DBC029853A8521151B
:102A4000310509F402C1ED80FE804B815C81B70144
:102A5000640F751F8F8198858617970708F4F5C056
:102A6000E20EF31ED7019C91903C09F07FC04230EA
:102A7000510508F47BC011968C9140912A05509124
:102A80002B05452B09F49CC0913F08F071C02CE147
:102A9000290F2D3008F48BC02DE2290F203108F4C6
:102AA00089C0903C21F48150823008F483C088E3CF
:102AB000890F8B3008F481C09CE3C92E94E1D92E94
:102AC000E6E2F4E16D817E81AE014F5F5F4F898563
:102AD0009A8519955C01C114D104A1F189809A806D
:102AE0008114910479F18B819C818815990508F4F2
:102AF00087C010E000E04B815C8170E060E0C701BE
:102B00000E949A3901151105E9F449815A816985B4
:102B10007A858D819E81680F791FC501F60119950F
:102B2000E980FA800D811E812F81388549855A857B
:102B30006FEF7FEF81E090E00E9477248C01892B7A
:102B400009F056C0C8012A960FB6F894DEBF0FBE32
:102B5000CDBFDF91CF911F910F91FF90EF90DF904C
:102B6000CF90BF90AF909F908F90089580E085CFD9
:102B700030E020E0220F331FF901E25EFA4F0190AE
:102B8000F081E02D309709F497CF892F90E01995C7
:102B9000009709F491CFDC011296ED91FC91139707
:102BA0001496CD90DC90309709F08CCF1FC021E0B7
:102BB00030E0E0CF22E030E0DDCF23E030E0DACFDC
:102BC000D12CC12CEEE2F4E19F3F09F07BCFE091E4
:102BD0001E05F0911F05309721F4C90104EF1FEF86
:102BE0000CC08FEF90E019950097A9F604EF1FEF46
:102BF00089859A85009709F4A5CF0E94CB26A2CF9C
:102C00000E94A6258C0189859A850E94CB2670E0BA
:102C100060E0C4010E943F2598878F830E9474243E
:102C20009E838D836F8178856115710559F0C80188
:102C30000E9457289A87898706EF1FEF892B09F092
:102C400058CF59CF08EF1FEF56CF08EF1FEFD0CF67
:102C500020912C05222319F020E00C94E01E87EF30
:102C60009FEF089580912A0590912B0508950E9469
:102C700064230E94BE22F5D0EEE1F5E088E0DF019A
:102C80001D928A95E9F710922C0590E080E0089556
:102C90000C941C2121E040E050E0BA010C94E01EAD
:102CA00086E090E0FA019183808390E080E00895CF
:102CB00047E050E06EEC72E049CEDF92EF92FF9277
:102CC0000F931F93CF93DF938A01EC01C60FD71F99
:102CD000E0903005F0903105D9800E948E25D816FD
:102CE000190678F082E090E0F801918380838EEFFE
:102CF0009FEFDF91CF911F910F91FF90EF90DF90A9
:102D00000895EF2841F482E090E0F80191838083F8
:102D100084EF9FEFEECF898180932F0590E001969D
:102D2000F8019183808390E080E0E3CFCF93DF933D
:102D3000EA010E94CD21882321F00E949B250E9458
:102D4000CE2182E090E0998388838BEF9FEFDF9123
:102D5000CF910895CF93DF93EB0186E0FB011192B1
:102D60008A95E9F78FEF8883D8DD8983E7DD8A8349
:102D7000E8DD9D838C83DF91CF910895CF93DF931E
:102D8000EA010E94D021811109C082E090E099837C
:102D9000888385EF9FEFDF91CF91089590E080E0E9
:102DA000B7DD81E090E09983888390E080E0F3CF05
:102DB0000F931F93CF93DF93EA018C01060F171F28
:102DC0000E94D02181110BC082E090E0998388831A
:102DD00085EF9FEFDF91CF911F910F910895F8013B
:102DE0008181823038F082E090E0998388838EEF91
:102DF0009FEFF0CF81E090E08BDD88E090E0998359
:102E0000888390E080E0E6CFCF93DF930097D1F402
:102E1000EB01FB01329686E0DF011D928A95E9F70E
:102E20008FEF888385E089831A820E948E258B83A9
:102E30000E948D259D838C8381E08E838F83DF911B
:102E4000CF910895DF91CF9117CD88E596E19093CA
:102E50002E0580932D05089580912D0590912E05C6
:102E6000089510922E0510922D0508958091300539
:102E7000909131050895411105C0611571058105D5
:102E8000910561F0609330057093310580933205B0
:102E9000909333054093340581E0089580E00895D0
:102EA000FF920F931F93CF93DF938A01EC01C60F1C
:102EB000D71FF9800E948E25F816190668F082E067
:102EC00090E0F801918380838EEF9FEFDF91CF91A7
:102ED0001F910F91FF9008956C817D818E819F815C
:102EE0004B81C9DF811108C082E090E0F801918335
:102EF000808384EF9FEFEACF898180932F0590E054
:102F00000196F8019183808390E080E0DFCFCF933A
:102F1000DF93EA01FC01E60FF71F6481758186816A
:102F200097814381A8DF811109C082E090E09983F5
:102F3000888384EF9FEFDF91CF91089581E090E047
:102F40009983888390E080E0F6CFE0E3F5E040816C
:102F5000518162817381480F511D611D711D408334
:102F60005183628373830895CF93C0912F054C2FB3
:102F700050E0609130057091310501960E949139C1
:102F80008C2FE3DF10922F05CF910895009799F4CD
:102F900080913005909131052FEFFB012083892B23
:102FA00059F020912F0530E02F5F3F4F2417350750
:102FB00019F4CB01D9CF60CC0895009799F4809192
:102FC0003005909131052FEFFB012083892B59F0BB
:102FD00020912F0530E02F5F3F4F2417350719F45C
:102FE000CB01C2CF49CC089523E1AC01249FC0019D
:102FF000259F900D1124E0913905F0913A05E80FD5
:10300000F91F238134812250310981E022303105BA
:1030100008F080E008950F931F93CF93DF93009102
:103020003B0510913C05D0E0C0E080E00C171D0787
:1030300049F491E0811190E0892FDF91CF911F91A8
:103040000F9108958111F5CFCE01CEDF2196EECFFD
:10305000A0913905B0913A05109729F120913B05CF
:1030600030913C0582179307F0F453E1589F90018B
:10307000599F300D1124A20FB31FED91FC911197B0
:10308000309789F012968C91681768F48DE0689FEC
:10309000E00DF11D112480819181892B21F081E0C7
:1030A0009281491708F080E008959C0143E1429F16
:1030B000C001439F900D1124E0913905F0913A052C
:1030C000E80FF91F8385823091F481E090E06581FB
:1030D00076814091890250918A026417750711F434
:1030E00090E080E0892B19F081E0232B09F080E04B
:1030F0000895FC01A081B1818DE0689FA00DB11DF4
:10310000112413964D915C9185859685489F900179
:10311000499F300D589F300D1124C901019661114E
:1031200003C0478144FD04960895EF92FF920F93E8
:103130001F93CF93DF93EA01FC01E60FF71F028193
:103140001381E480F5804F2D6E2DC80181DF811140
:103150000DC082E090E0998388838EEF9FEFDF912E
:10316000CF911F910F91FF90EF900895C8013CDF20
:10317000882339F082E090E09983888388EF9FEF7D
:10318000EECF1093900200938F02E0929102F092A2
:10319000920281E090E09983888390E080E0DFCF25
:1031A000CF92DF92EF92FF920F931F93CF93DF9313
:1031B0007A01EC01C60FD71FC0908F02D090900209
:1031C0000091910210919202412F602FC60140DFC1
:1031D000811110C082E090E0F701918380838AEF33
:1031E0009FEFDF91CF911F910F91FF90EF90DF90B4
:1031F000CF900895C601F8DE882341F082E090E088
:10320000F7019183808388EF9FEFEBCF4C815D8145
:103210006E817F819A8189818F3F41F082E090E0C9
:10322000F701918380838EEF9FEFDBCFE3E1EC9D8D
:103230009001ED9D300D1124E0913905F0913A0592
:10324000E20FF31F0190F081E02D2DE0029FE00DD1
:10325000F11D11240190F081E02D27E0129FE00D77
:10326000F11D1124808391838B8182834383548356
:10327000658376831F5F1093920281E090E0F701EF
:103280009183808390E080E0ACCFEF92FF920F9328
:103290001F93CF93DF937A018C01060F171FC09104
:1032A0003905D0913A05209781F021E030E0F8010E
:1032B0008281938140913B0550913C05841795078D
:1032C00010F030E020E0232B71F482E090E0F70171
:1032D000918380838EEF9FEFDF91CF911F910F91AC
:1032E000FF90EF90089543E1489F9001499F300D72
:1032F0001124C20FD31F78DE882341F082E090E0D2
:10330000F7019183808388EF9FEFE6CFF801248156
:10331000358120383105C8F687818111D6CF4181AA
:10332000842F90E08F7E009741F082E090E0F701DB
:103330009183808386EF9FEFCFCF4F833E832D8392
:10334000268128871986223010F421E0288721E081
:1033500030E0F70131832083BFCF88E090E0FA01AD
:103360009183808390E080E00895FB018FEF80835C
:1033700081E181838FEF9FEF9383828380E890E0E8
:1033800095838483168217820895FB018FEF8083D3
:1033900091E0918382839383848384E3858381E0B6
:1033A00090E097838683089582E090E0FA0191830C
:1033B000808380EF9FEF0895DF92EF92FF920F934B
:1033C0001F93CF93DF93EA01FC01E60FF71F818182
:1033D000813071F082E090E0998388838FEF9FEFD6
:1033E000DF91CF911F910F91FF90EF90DF900895A3
:1033F00082819381D4802581E680F7800091390510
:1034000010913A050115110539F482E090E0998395
:1034100088838CEF9FEFE4CF40913B0550913C05B2
:103420008417950738F082E090E0998388838EEFC7
:103430009FEFD6CF892B39F082E090E09983888383
:1034400086EF9FEFCDCF8D2D8D7FB1F72130A1F786
:1034500081E0D11006C091E0E916F10431F080E07E
:1034600004C0E2E0EE16F104D0F3882329F390E0E3
:1034700080E0BADD882339F082E090E09983888388
:1034800088EF9FEFADCFF801D38681E08487F68681
:10349000E586108A178681E090E09983888390E022
:1034A00080E09ECF4DE050E068EF72E04FCA8F920F
:1034B0009F92BF92CF92DF92EF92FF920F931F9352
:1034C000CF93DF93EA01FC01E60FF71F828193811E
:1034D0000481B580E0913905F0913A05309791F477
:1034E00082E090E0998388838CEF9FEFDF91CF910A
:1034F0001F910F91FF90EF90DF90CF90BF909F9022
:103500008F90089520913B0530913C0582179307D9
:1035100038F082E090E0998388838EEF9FEFE6CFCA
:1035200023E1289F6001299FD00C1124EC0DFD1D83
:10353000E080F180E114F10499F28281081748F7E4
:103540008DE0089F80011124E00EF11EF7018081BB
:103550009181892B29F6BB20E1F2F7E0BF9E400163
:103560001124C4010E949226F70191838083E09187
:103570003905F0913A05EC0DFD1D0190F081E02D2B
:10358000E00FF11F80819181009739F482E090E093
:10359000998388838DEF9FEFA9CFA40170E060E04D
:1035A0000E949A398091390590913A05C80ED91E2A
:1035B000F60180819181080F191FF801B28281E024
:1035C00090E09983888390E080E090CFAF92BF92A3
:1035D000CF92DF92FF920F931F93CF93DF93EA0175
:1035E000FC01E60FF71F82819381F4800091390579
:1035F00010913A050115110581F482E090E099835C
:1036000088838CEF9FEFDF91CF911F910F91FF90F7
:10361000DF90CF90BF90AF90089520913B053091FF
:103620003C058217930738F082E090E09983888305
:103630008EEF9FEFE8CF2FEF2F0D2C3FA8F723E160
:10364000289F6001299FD00C11240C0D1D1DF8012D
:1036500080819181892B89F6FDE0FF9E5001112424
:10366000C5010E949226F80191838083E09139057B
:10367000F0913A05EC0DFD1D80819181009739F4A0
:1036800082E090E0998388838DEF9FEFBCCFA50106
:1036900070E060E00E949A39E0913905F0913A05B6
:1036A000EC0DFD1DF28281E090E09983888390E02B
:1036B00080E0A9CFCF92DF92EF92FF920F931F93FA
:1036C000CF93DF93860F971FFC01028113818091B6
:1036D000390590913A05892B81F082E090E0FA015A
:1036E000918380838CEF9FEFDF91CF911F910F919A
:1036F000FF90EF90DF90CF900895C801B0E0A0E078
:103700000197A109B1098F3F9F4FA105B10540F075
:1037100082E090E0FA01918380838EEF9FEFE4CF07
:103720007A0183E1809F6001819FD00C1124C60142
:103730000E949226EC01009741F482E090E0F701AC
:10374000918380838DEF9FEFCFCFA60170E060E083
:103750000E949A39D0933A05C093390510933C05DD
:1037600000933B0590E080E02FEF3FEF41E061E008
:1037700070E08017910741F481E090E0F7019183B8
:10378000808390E080E0B0CF3A8B298B1B864C87FA
:103790007E876D87188A1F8601966396EACFEF921F
:1037A000FF921F93CF93DF93EC0110E0F12CE12CFB
:1037B0006A811617B0F083E0689FB0011124AE0152
:1037C0004F5E5F4FC7010E94F726009721F02FEF51
:1037D0003FEF3A8B298BDF91CF911F91FF90EF90B4
:1037E0000895612FCE0185DC61E070E00E943F25E5
:1037F000E816F90608F47C011F5FDACFF8942091EF
:1038000037053091380581E02115310509F080E058
:10381000232B09F0789408952F923F924F925F9254
:103820006F927F928F929F92AF92BF92CF92DF92D0
:10383000EF92FF920F931F93CF93DF933C01660E9D
:10384000771EF301828193814C01B12CA12CC09190
:103850003905D0913A05209769F021E030E0609178
:103860003B0570913C058617970710F030E020E08B
:10387000232BD1F482E090E0FA01918380838EEFD4
:103880009FEFDF91CF911F910F91FF90EF90DF900D
:10389000CF90BF90AF909F908F907F906F905F90F0
:1038A0004F903F902F9008958092930290929402AF
:1038B000A0929502B092960263E1689F9001699F81
:1038C000300D1124C20FD31FF3018181833040F0EA
:1038D00082E090E0FA019183808386EF9FEFD1CF61
:1038E0002A012B813C81232BF1F4288139819F818E
:1038F00091FF2EC0232B09F46FC020913E059A81C1
:10390000422F490F5527551FBA0141E050E0613859
:10391000710514F050E040E0452B09F45DC02A87A2
:10392000920F90933E058150823008F481C066DF8B
:10393000882309F4D8C0F3018181813009F48DC056
:1039400008F47BC0823009F4C6C090E080E0ADC0CE
:10395000232B09F441C020913D059A81E22FE90F04
:10396000FF27FF1F41E050E0ED3FF10514F050E06C
:1039700040E0452B89F12A87920F90933D05D3CFE4
:10398000A081B181A20FB31F11966C91060F111D7A
:103990000196295F3F4F8417950794F38D859E8587
:1039A000089F1001099F300C189F300C1124C1147E
:1039B000D104D1F48F8184FF17C00E948D25F5E0DA
:1039C0002F0E311C21E08215930508F420E0A70199
:1039D000435F5F4F21110EC082E090E0F2019183BE
:1039E000808387EF9FEF4DCF0E948D252FEF221A06
:1039F000320AE8CF88819981E80EF91EF701148315
:103A00000383FFEFCF1ADF0A7A018A818C151D0428
:103A100009F00CF48CCFE881F981EE0DFF1D428195
:103A200050E030E020E010E000E090E080E0B3CF34
:103A3000F12CE12CD12CC12CE8CF81E090E09C83CB
:103A40008B83E9DA882309F480CF81E090E00E943B
:103A5000881480E40E94961478CF89899A89019607
:103A600061F083E090E09C838B8382E090E00E9491
:103A7000881480E40E94901468CF8D819E812091EB
:103A8000890230918A0282179307D1F460918D02E6
:103A900070918E02AE014F5E5F4F80918B029091CC
:103AA0008C020E9416280097E1F2789422E030E020
:103AB000F20131832083892B99F08DEF9FEFE1CEC6
:103AC00089288A288B2869F6029758F6CE0167DE86
:103AD000188A1F86E8CF82E090E09C838B8335CFE5
:103AE00090E080E0CECE82E090E0F201918380838E
:103AF00085EF9FEFC6CE8F929F92AF92BF92CF92EB
:103B0000DF92EF92FF920F931F93CF93DF93EA011F
:103B10008C01060F171FF8018181833098F082E035
:103B200090E09983888386EF9FEFDF91CF911F917B
:103B30000F91FF90EF90DF90CF90BF90AF909F904C
:103B40008F9008958091390590913A05892B61F005
:103B500081E090E020913B0530913C05232B11F44E
:103B600090E080E0892B39F482E090E099838883AB
:103B70008EEF9FEFDACF42DE882309F4E0C0F80130
:103B80008181813009F496C0E8F0823099F4209167
:103B90003B0530913C05E0913905F0913A0590E004
:103BA00080E041E050E02817390709F0BEC033DA61
:103BB000811117C0789481E090E09983888390E028
:103BC00080E0B3CF20913B0530913C05E091390571
:103BD000F0913A0590E080E041E050E02817390785
:103BE00041F481E090E00E94881480E40E949614E1
:103BF000E1CF63817481672B11F054834383019675
:103C00007396ECCFE0913905F0913A05E00FF11F82
:103C10002381348122303105D9F4218932892F3F23
:103C20003F4FB1F4258136814091890250918A023B
:103C30002417350761F5AF014F5E5F4F60918D022C
:103C400070918E0280918B0290918C020E941628B6
:103C5000EFEFCE1ADE0AEE0AFE0A0D5E1F4F40910C
:103C60003B0550913C0570E060E0C416D506E606C1
:103C7000F70644F5009731F27894892B09F49BCF2D
:103C800082E090E0998388838DEF9FEF4ECFC1143F
:103C9000D104E104F104E1F622303105C8F6CF0188
:103CA0007EDDE0913905F0913A05E00FF11F108AB1
:103CB0001786CECF10E000E090E080E0C12CD12C40
:103CC0007601CDCF0097C1F610E000E0812C912C59
:103CD000540183E0E82EF12C1AC0E0913905F091EF
:103CE0003A05E00FF11F83819481029749F4F48231
:103CF000E38282E090E00E94881480E40E949014A5
:103D0000FFEF8F1A9F0AAF0ABF0A0D5E1F4F809107
:103D10003B0590913C05B0E0A0E088169906AA0604
:103D2000BB06DCF290E080E0A7CF63817481623053
:103D3000710511F4548343830196739634CF82E066
:103D400090E09983888385EF9FEFEFCE0097B9F4D9
:103D50008FEFFB018083209193023091940243E125
:103D6000429FC001439F900D1124E0913905F091CD
:103D70003A05E80FF91F8285FB01818308950C94B1
:103D80003C1488E090E0FA019183808390E080E029
:103D900008951092380510923705E9E3F5E086E0C2
:103DA000DF011D928A95E9F782E59AE19093360545
:103DB00080933505089580913505909136050895D5
:103DC0002F923F924F925F926F927F928F929F922B
:103DD000AF92BF92CF92DF92EF92FF920F931F9319
:103DE000CF93DF93CDB7DEB72F970FB6F894DEBF32
:103DF0000FBECDBFF894E0913705F09138053196AC
:103E0000F0933805E0933705789440903905509049
:103E10003A054114510409F40CC2E0913B05F091BC
:103E20003C05EF2B09F405C22D8749875A876B871C
:103E30007C8798878F831201B12CA12C10E000E0C1
:103E400080913B0590913C05A816B90618F4011520
:103E5000110529F1F8948091370590913805019763
:103E600090933805809337057894C8012F960FB644
:103E7000F894DEBF0FBECDBFDF91CF911F910F91A0
:103E8000FF90EF90DF90CF90BF90AF909F908F907A
:103E90007F906F905F904F903F902F9008957101A9
:103EA000E418F508D10117968C91179781FD54C03D
:103EB00013968D919C911497039709F04DC0159618
:103EC0008D919C91EF81F8858E179F0709F044C072
:103ED000B50190E080E07FD48A832091390530914C
:103EE0003A053D832C833D85332309F44CC04C8136
:103EF0005D81452B09F49AC180913B0590913C0569
:103F0000A816B90608F092C1C501CFD88823E9F0F8
:103F10006C817D816E0D7F1D7D836C83DB011F961F
:103F20008D919C91892B89F0D12CC12CF12CE12C05
:103F3000AC81BD8112968C9112978E151F0409F0E9
:103F400094F450961C921E921F972A81222321F0EE
:103F5000B50190E080E041D43FEFA31AB30A43E1FA
:103F6000240E311C6DCFAC81BD81ED91FC91EC0D27
:103F7000FD1D858196810FD7BFEFEB1AFB0AEDE09F
:103F8000CE0ED11CD5CFEC81FD81309709F44EC106
:103F900080913B0590913C05A816B90608F046C1F2
:103FA000EE0DFF1DFF87EE87C5017FD88B83882329
:103FB00039F1AE85BF851F968D919C9150970196E2
:103FC00021E01D964D915C918417950709F020E042
:103FD0002E831982712C10E000E0AE85BF85129609
:103FE0008C91781608F45DC0EE85FF8587859089F1
:103FF0000196658576850E943A39908B8787A5CF93
:10400000B1E0BE83E6CF992493946BC08BD6F601C2
:104010009683858382C0D601ED90FC90B7E06B9EBD
:10402000E00CF11C1124F7016381748180818F3FC2
:1040300061F121E030E002C0220F331F8A95E2F7E0
:10404000C901092E000CAA0BBB0BFB014081518159
:104050006281738184239523A623B72321E0892BD2
:104060008A2B8B2B09F420E0D4012C93D7011196D5
:104070008C91F60123853485820F932F911D880E34
:10408000991E1486138663949BC0418150E0C4013D
:104090000E949139EBCF998206EF1FEFC5C01982BC
:1040A000C3C0F981F111A0CFEDE07E9E7001112413
:1040B000AE85BF85CD90DC90CE0CDF1C15D49D83E2
:1040C0008C83BB81BB2309F49ECF81E0EE85FF8505
:1040D00027853089232B09F080E0982E882309F466
:1040E00058C0672D8E859F8504D8D60118969C935D
:1040F0008E93179761E070E0C2D4EE85FF85218929
:1041000032892F3F320709F481CFBC01C901CFD7D3
:10411000D60116969C938E931597D60115968D9180
:104120009C911697009709F4B6CFEC81FD818E0F14
:104130009F1F1A969C938E931997AE85BF85ED911C
:10414000FC911197EE0EFF1EF70121853285148632
:1041500013861A968C91870DD9018D93711016C014
:10416000EE85FF85878184FF11C049855A856B855F
:104170007C85F9014183528363837483F7018385CE
:1041800094850496A80FB91F14861386F701B28789
:10419000A187D60115968D919C911697892B09F4CC
:1041A00043C0EE85FF8525813681809189029091FB
:1041B0008A022817390779F019968D909C90612C06
:1041C000D60112968C911297681608F424CF1A968D
:1041D0009C928E921997BE81BB2309F460CF61E057
:1041E00070E0F601878190854AD4D6011796ED904C
:1041F000FC90189715964D915C91E1E0F0E0BA8142
:10420000BB2311F0F0E0E0E00C811D819C01B501C1
:10421000882799278E1B9F0B6AD38C01892B21F04D
:10422000F60185819681B7D57394D7CE0FEF1FEF36
:104230008CCE10E000E00ECE2F923F924F925F9214
:104240006F927F928F929F92AF92BF92CF92DF92A6
:10425000EF92FF920F931F93CF93DF9380913905D5
:1042600090913A0510E000E0892BA9F0C7DA0AEF37
:104270001FEF882381F020903B0530903C05C091D2
:104280003905D0913A05D12CC12C10E000E02C1456
:104290003D04A9F47894C801DF91CF911F910F914B
:1042A000FF90EF90DF90CF90BF90AF909F908F9056
:1042B0007F906F905F904F903F902F900895C60130
:1042C0000E945518882309F18B819C810397E9F49A
:1042D0008F859889892BC9F0B60190E080E07BD268
:1042E00021E030E0882311F030E020E04424552420
:1042F000421A530AB12CA12C912C812C8A81881549
:10430000190409F038F4188A1F864FEFC41AD40A2A
:104310006396BDCFE881F981EA0DFB1D8581968109
:10432000892BA1F161E070E087819085A8D33C01E1
:10433000DBD28C01E881F981EA0DFB1D8185928534
:1043400025813681200F311FAC01421B530B9A018E
:1043500047815085421B530B70E060E00E949A3900
:10436000E881F981EA0DFB1DE780F08445815681E3
:104370009301B601C201BBD28C01892B39F0E881CF
:10438000F981EA0DFB1D8581968105D55FEF851AC0
:10439000950A8DE0A80EB11CB1CF30CA789408956B
:1043A0002F923F924F925F926F927F929F92AF9225
:1043B000BF92CF92DF92EF92FF920F931F93CF9312
:1043C000DF9300D000D0CDB7DEB700913905109152
:1043D0003A05992493940115110509F43EC0A09063
:1043E0003B05B0903C050ADA982E8823B1F1109273
:1043F0003A051092390510923C0510923B05109237
:104400003D0510923E058FEF9FEFDC0180939302F4
:1044100090939402A0939502B093960278947FD3E0
:104420001E830D83C12CD12C7601C501B0E0A0E024
:1044300089839A83AB83BC8322242A94322C89817A
:104440009A81AB81BC81C816D906EA06FB06F4F056
:10445000C801A1D480E40E949614892D26960FB637
:10446000F894DEBF0FBECDBFDF91CF911F910F91AA
:10447000FF90EF90DF90CF90BF90AF909F907F9094
:104480006F905F904F903F902F900895AD81BE81C7
:1044900015968D919C9116972091890230918A02F0
:1044A00082179307D1F451968D919C91EED5ED81B1
:1044B000FE8180819181B12CA12C412C512C3201A3
:1044C000892B89F5BFEFCB1ADB0AEB0AFB0AED81DA
:1044D000FE817396FE83ED83B2CFC114D104E10453
:1044E000F10429F7029718F7ED81FE8181899289FD
:1044F0008F3F980709F029D5AD81BE8152963C9235
:104500002E925197D4CF8A0D9B1DDC018D919C91E9
:10451000009709F040D4BFEF4B1A5B0A6B0A7B0A85
:10452000EDE0AE0EB11CAD81BE818D919C911197D5
:1045300012964C9150E070E060E044165506660615
:1045400077060CF328D4BECFCF93DF93EA0128DFA0
:10455000811109C082E090E09983888385EF9FEF05
:10456000DF91CF91089581E090E00E94881481E06E
:1045700090E09983888390E080E0F2CF11DF109281
:10458000360510923505089542E050E066E473E088
:104590000C94A614FF920F931F93CF93DF938A017D
:1045A000EC01C60FD71FF980B9D20897F816190683
:1045B00071F068F082E090E0F801918380838EEFE3
:1045C0009FEFDF91CF911F910F91FF9008956C8124
:1045D0007D818E819F814B810E943B17811108C094
:1045E00082E090E0F8019183808384EF9FEFE9CF30
:1045F000F9800E9436174F2D50E0BE01685F7F4F53
:104600000E94913989810E94A51781E090E0F8010C
:104610009183808390E080E0D4CFDF92EF92FF928D
:104620000F931F93CF93DF938A01EC01C60FD71F1F
:104630000E9436177C01D98071D2DD2059F0029793
:1046400021E030E0D816190619F010F030E020E033
:10465000232B79F482E090E0F801918380838EEF40
:104660009FEFDF91CF911F910F91FF90EF90DF901F
:104670000895EF2841F482E090E0F801918380836F
:1046800084EF9FEFEECFF9800E9436174F2D50E058
:10469000BE016E5F7F4F0E94913989810E94A517EC
:1046A00081E090E0F8019183808390E080E0D9CFB1
:1046B00084EC92E29093400580933F0508958091A9
:1046C0003F059091400508950895FC0111821082E4
:1046D000938382830895DB011D921C92DC01129664
:1046E000ED91FC9113977183608313967C936E9385
:1046F00012970895FC0180819181DB018D939C9339
:10470000A081B181109741F08D919C91918380831C
:10471000892B11F4F383E2830895FC018081918158
:10472000DB018D939C93892B11F4738362837183D6
:1047300060830895FC01118210829383828308951F
:10474000CF93DF931F921F92CDB7DEB71A821982E3
:10475000F894BE016F5F7F4F86E495E0CBDF8981DF
:104760009A81009709F017D389819A81892B89F75B
:10477000BE016F5F7F4F8AE495E0BCDF89819A813B
:10478000009709F008D389819A81892B89F7789459
:104790000F900F90DF91CF910895CF93DF931F92E9
:1047A0001F92CDB7DEB71A821982F894BE016F5FEF
:1047B0007F4F82E495E09EDF89819A81009709F01E
:1047C000EAD289819A81892B89F778940F900F908A
:1047D000DF91CF91089581E0089590E080E0089501
:1047E000EF92FF920F931F93CF93DF931F921F922D
:1047F000CDB7DEB71A8219828091410507EF1FEF0E
:104800008823A1F1F894BE016F5F7F4F8AE495E0A1
:1048100071DF789489819A81EE24E394F12C892BBD
:1048200051F4F894BE016F5F7F4F86E495E062DF3C
:104830007894F12CE12C89819A810EEF1FEF00977B
:10484000A9F0FC014281538164E070E076D68C01CE
:10485000892B61F0F89469817A81C701880F991FCB
:10486000880F991F8A5B9A4F58DF7894C8010F9080
:104870000F90DF91CF911F910F91FF90EF900895CE
:104880000F931F93CF93DF9300D01F92CDB7DEB766
:104890001C821B821A8219828091410507EF1FEF4B
:1048A0008823C1F0AE014D5F5F4F64E070E0CE0140
:1048B0000196B6D68C01892B69F4E981FA818B8146
:1048C0009C8193838283F89469817A8182E495E064
:1048D00002DF7894C8010F900F900F900F90DF9136
:1048E000CF911F910F910895BBD7049608958F9291
:1048F0009F92AF92BF92CF92DF92EF92FF920F936F
:104900001F93CF93DF931F921F92CDB7DEB71A820A
:104910001982BC016F5F7F4F6330710598F0AA2444
:10492000AA94BA2CC5010F900F90DF91CF911F91DF
:104930000F91FF90EF90DF90CF90BF90AF909F903E
:104940008F9008954115510551F3480159018A018D
:104950006C01CADF8815990511F7E114F104F9F229
:104960008E0D9F1DA816B906D0F2809141058823AF
:10497000F1F0F894B501645071099701AE014F5FF1
:104980005F4FC8010496E1D65C01892B71F48981DF
:104990009A81F80193838283C601880F991F880F3B
:1049A000991FB8018A5B9A4F96DE7894BBCF87EF48
:1049B000A82EBB24BA94B6CFAF92BF92CF92DF920B
:1049C000EF92FF920F931F93CF93DF931F921F924B
:1049D000CDB7DEB71A821982892B09F047C061155D
:1049E000710509F443C04115510509F43FC0211573
:1049F000310509F43BC001151105C1F18091410554
:104A00008823B9F179016A015B01F894BE016F5FF7
:104A10007F4F82E495E06EDE789489819A810097D9
:104A200059F1DC0112966D917C91A8010496A6D6ED
:104A30008C01E981FA81D501ED93FC938281938108
:104A40000496F601918380834FDFD7018D939C9369
:104A5000C8010F900F90DF91CF911F910F91FF90A0
:104A6000EF90DF90CF90BF90AF9008950FEF1FEFC2
:104A7000EFCF07EF1FEFECCF0EEF1FEFE9CFCF9394
:104A8000DF93EC01672B71F4F4D68C179D0760F06F
:104A9000E7D62496C80FD91FE6D68C0F9D1FDF914D
:104AA000CF910895E3D6F1CF90E080E0F8CF0F9357
:104AB0001F93CF93DF932091410521112BC08B01D0
:104AC000EC0186E495E001DE8AE495E0FEDD82E417
:104AD00095E0FBDD97D00097C1F4CBD670E060E0A5
:104AE000CEDF47E952E062E070E081D1009769F4DF
:104AF0008091970290919802CED6B801CE0103D54D
:104B0000009719F421E020934105DF91CF911F9187
:104B10000F91089584EF9FEFF8CFA8C6AAC6CF9350
:104B2000DF93AAD6EC01892B11F40ADE36DECE0122
:104B3000DF91CF910895CF93DF939ED6EC01892B1F
:104B400009F4FEDDCE01DF91CF91089580919702A7
:104B5000909198020895CF93DF9380914105D0E022
:104B6000C0E08823D1F09CD6EC01892BB1F4E8DDBC
:104B700014DE8091970290919802E7D1E8D2EC017F
:104B8000892B59F486E495E0D5DD8AE495E0D2DD01
:104B900082E495E0CFDD10924105CE01DF91CF9107
:104BA0000895EF92FF920F931F93CF93DF93EC0141
:104BB0007A018B010F5F1F4F0E9DA0010F9D500DBD
:104BC0001E9D500D112470E060E00E949A3990E023
:104BD00080E0F0E0E0E02FEFE816F90639F4DF912D
:104BE000CF911F910F91FF90EF9008951A82198233
:104BF0002883309711F0D283C1830196FE01C00F44
:104C0000D11FEACFCF92DF92EF92FF920F931F93C3
:104C1000CF93DF930BE217E00C7F43E050E069E9AC
:104C200072E08FE992E01CD489E9E82E82E0F82E48
:104C30009FE9C92E92E0D92ECAEDD7E0D7014D9158
:104C40005D917D01F601619171916F011983088376
:104C50005D834C835B834A837F836E839B012F5FDD
:104C60003F4F249FC001259F900D349F900D11242C
:104C7000998788870115110511F0C80192DF888591
:104C80009985080F191F2A96FFE9EF16F2E0FF0633
:104C9000A9F6E0E5F5E088ED91E0DF019C011D92C9
:104CA00021503040E1F710924F0510924E051092BE
:104CB000F9071092F8071092FD071092FC07109266
:104CC000FB071092FA071092FF071092FE0710924E
:104CD0000108109200081092030810920208109226
:104CE0000708109206081092050810920408109206
:104CF00009081092080810920B0810920A081092E6
:104D0000D7071092D6071092D9071092D80790E0D3
:104D100080E0DF91CF911F910F91FF90EF90DF9096
:104D2000CF9008950097F1F0F894AFE9B2E0EAED82
:104D3000F7E030E020E04D915D9148175907A8F069
:104D4000428153814115510581F08AE0829FF00133
:104D5000839FF00D1124E652F84F808191810097D6
:104D600059F4789490E080E008952F5F3F4F3A9691
:104D70002330310501F7F5CFDC0111966D917C915F
:104D8000718360834150510953834283FC01219315
:104D9000CF0178940895009749F1DC018E91853018
:104DA00041F4E091D807F091D9073097F9F0CD019F
:104DB00019948530D8F4282F30E0F8948FEF8C9335
:104DC0008AE0829FF001839FF00D1124E652F84F94
:104DD0008081918112969C938E931197B183A083C9
:104DE0008281938101969383828378940895CF92F0
:104DF000DF92EF92FF920F931F93CF93DF939C016B
:104E000083E595E08C7F4115510509F49BC0211580
:104E1000310509F497C06115710509F493C07A0151
:104E2000AB01B9016D5F7F4F6C7F9B012F5F3F4FDF
:104E3000249F8001259F100D349F100D1124F8949C
:104E40002091F8073091F907232B59F4209100089D
:104E5000309101082115310569F12017310708F05B
:104E600058C02091020830910308232B91F420911F
:104E7000000830910108820F931F20910A08309199
:104E80000B082115310509F441C02017310708F03E
:104E900056C07894CFEFDFEF86EF9FEFF701D18315
:104EA000C083DF91CF911F910F91FF90EF90DF9022
:104EB000CF900895C3E0D0E0C0904E05D0904F054C
:104EC00025ED31E02C193D092017310710F32AE0B8
:104ED0002C9FF0012D9FF00D1124E652F84F918385
:104EE000808355834483538342837783668311870A
:104EF0000087009709F055DE0C0D1D1D10934F051E
:104F000000934E05789490E080E0C8CFC4E0D0E0F4
:104F1000D3CFC3E0D0E02AE02C9FF0012D9FF00D0D
:104F20001124E652F84F9183808355834483538341
:104F3000428377836683009729F333DEE3CFC4E0AF
:104F4000D0E0E9CF8FEF9FEFACCF9C0103970297A2
:104F500008F069C0F89484E09AE0482F50E02417E4
:104F600035070CF44DC091E08AE0829FF001839FE9
:104F7000F00D1124E652F84F11821082158214822E
:104F800013821282178216829923B1F18091F80759
:104F90009091F907892BA9F420910008309101081C
:104FA0002115310571F080914E0590914F05821BBE
:104FB000930B90934F0580934E0510920108109229
:104FC00000088091020890910308892BA9F4209190
:104FD0000A0830910B082115310571F080914E05BA
:104FE00090914F05821B930B90934F0580934E0534
:104FF00010920B0810920A08789490E080E00895CF
:10500000949FF001959FF00D1124E652F84F4081D6
:105010005181452B31F440855185452B11F4815048
:105020009CCF90E0A1CF8FEF9FEF089541155105E0
:1050300049F1009739F16115710521F1F89420913A
:10504000D6073091D707232BB9F42091D807309198
:10505000D907232B89F49093D7078093D6077093B1
:10506000D9076093D807789425E030E090E080E09D
:10507000FA0131832083089578942FEF3FEF86EF74
:105080009FEFF6CF8FEF9FEF0895059769F4F8949F
:105090001092D7071092D6071092D9071092D8070E
:1050A000789490E080E008958FEF9FEF0895611568
:1050B000710519F4F0E0E0E011C08530910581F44C
:1050C000E091D607F091D7073097A1F3CB01019675
:1050D0001995009779F3FC0185E08193CF0108953C
:1050E0009C01235031092230310520F72AE0289F06
:1050F000D001299FB00D1124A652B84F2D913C919B
:105100001197232BB9F216962D913C9117972617DC
:10511000370780F2F89412962D913C911397211540
:10512000310529F0ED91FC911197309711F47894A5
:10513000C1CF4181528111965C934E932150310928
:1051400013963C932E93129781937894C7CFE8E2FD
:10515000F7E08EEADF011D928A95E9F7E0E5F5E0D8
:1051600088ED91E0DF019C011D9221503040E1F774
:1051700010924F0510924E05EAEDF7E082E3DF0151
:105180001D928A95E9F7E6EDF7E084E0DF011D92D4
:105190008A95E9F790E080E00895CF93DF93C0917E
:1051A000A502D091A602CF3FDC0759F45FD49093BB
:1051B000A6028093A50297FF09C0D093A602C093D0
:1051C000A50284EF9FEFDF91CF91089590E080E0FA
:1051D000FACF8230910528F480930C0890E080E0AB
:1051E00008958FEF9FEF08954F925F926F927F9295
:1051F000AF92BF92CF92DF92EF92FF920F931F93E5
:10520000CF93DF931F921F92CDB7DEB71A82198218
:10521000009709F479C06115710509F475C02091F2
:10522000A5023091A60207EF1FEF2F3F3F4F09F471
:1052300045C06B015C01412C512C3201F12CE12C59
:1052400010E000E09E012F5F3F4FA6014E195F095D
:10525000B5016E0D7F1D8091A5029091A6026AD4C2
:10526000892B09F04BC089819A81009741F4E114A0
:10527000F10429F420910C08222309F442C0E80E1D
:10528000F91EEC14FD04D0F480E8481684E85806B2
:105290008EE16806710420F560E070E0CB010E94A9
:1052A00068332AE0420E511C611C711C0A3F4FEF0B
:1052B000140721F0043F8FEF1807A1F4C8010F90E5
:1052C0000F90DF91CF911F910F91FF90EF90DF90A2
:1052D000CF90BF90AF907F906F905F904F90089568
:1052E00001EF1FEF81E090E0013F2FEF120711F077
:1052F00090E080E0892B09F4A5CFE0CF04EF1FEF09
:10530000DDCF0AEF1FEFDACF0FEF1FEFD7CF4F92AE
:105310005F926F927F92AF92BF92CF92DF92EF92A5
:10532000FF920F931F93CF93DF931F921F92CDB7DE
:10533000DEB71A821982009709F479C061157105E8
:1053400009F475C02091A5023091A60207EF1FEF66
:105350002F3F3F4F09F445C06B015C01412C512C9C
:105360003201F12CE12C10E000E09E012F5F3F4F55
:10537000A6014E195F09B5016E0D7F1D8091A50232
:105380009091A6028AD3892B09F04BC089819A811A
:10539000009741F4E114F10429F420910C08222330
:1053A00009F442C0E80EF91EEC14FD04D0F480E4C8
:1053B000481682E458068FE06806710420F560E024
:1053C00070E0CB010E9468332AE0420E511C611C40
:1053D000711C0E3F4FEF140721F0043F8FEF1807A9
:1053E000A1F4C8010F900F90DF91CF911F910F9101
:1053F000FF90EF90DF90CF90BF90AF907F906F9035
:105400005F904F90089502EF1FEF81E090E0023F20
:105410002FEF120711F090E080E0892B09F4A5CF5F
:10542000E0CF04EF1FEFDDCF0EEF1FEFDACF0FEF6E
:105430001FEFD7CF8091A5029091A6028F3F9807CA
:1054400049F00CD3892B49F48FEF9FEF9093A6027C
:105450008093A50290E080E0089584EF9FEF089587
:10546000CF92DF92EF92FF920F931F93CF93DF9330
:1054700021E04115510509F020E041505109211169
:105480002CC0DC01FB01D12CC12C21E022C03FEF5C
:10549000C31AD30A7D010D911D91E701EA80FB80BB
:1054A000E016F106A8F420813181E280F380F182D8
:1054B000E08233832283ED90FC9011979D0122506E
:1054C0003109E901F982E88211961C930E9320E0DC
:1054D0003296C416D506D8F2D2CFDF91CF911F9164
:1054E0000F91FF90EF90DF90CF900895FC01680F2F
:1054F000791F90E080E0E617F70709F408952191FD
:10550000820F911DF8CF20910D08211113C045DEA7
:10551000009791F41092130810921208109211083B
:105520001092100810920F0810920E0821E020939C
:105530000D08089584EF9FEF0895AF92BF92CF9228
:10554000DF92EF92FF920F931F93CF93DF93009719
:1055500009F460C04630510508F45CC020910D0884
:10556000C7EFDFEF222309F449C08C01060F171F94
:10557000F801C080D180C114D10409F44EC0960155
:105580002A5F3F4F4217530708F447C07C018091C0
:1055900012089091130893838283B6016C5F7F4F4A
:1055A0005801A60EB71EC801A1DFF50191838083C3
:1055B00064E070E0C80118DEEC01892BF9F481E0A9
:1055C00090E007DEB601C80104960EDEEC01892BDF
:1055D00091F462E070E0C50107DEEC01892B59F41B
:1055E000C701D9DB8091120890911308019690931E
:1055F00013088093120890E080E0EBDDCE01DF918C
:10560000CF911F910F91FF90EF90DF90CF90BF90BF
:10561000AF900895CFEFDFEFF1CFC9EFDFEFEECF1F
:105620006F927F928F929F92AF92BF92CF92DF92B2
:10563000EF92FF920F931F93CF93DF9300D01F92AF
:10564000CDB7DEB7009709F47AC04115510509F4CA
:1056500076C020910D0807EF1FEF222309F44DC0FB
:105660003A017B015C0164E070E0CE0101964FDEFF
:105670008C01892B09F041C009811A81011511059E
:1056800009F45AC0480186E0880E911CB701680DE4
:10569000791D8091A7029091A80209DD6C01009705
:1056A00009F450C0A70170E060E00E949A39898136
:1056B0009A81AB81BC81EC0CFD1CF7018193919325
:1056C000A193B1937F0181E090E083DDB801C70130
:1056D0001EDE892B31F562E070E0C701800F911F5B
:1056E00016DE8C01892BE9F490E080E072DDF50193
:1056F000D182C082F30191828082C8010F900F9005
:105700000F900F90DF91CF911F910F91FF90EF902D
:10571000DF90CF90BF90AF909F908F907F906F90D1
:10572000089590E080E055DDF50111821082F301CB
:1057300011821082C6012FDB09EF1FEFDECF0FEFC2
:105740001FEFDBCF06EF1FEFD8CF0097A1F0411579
:10575000510589F02115310571F0F90136966E1762
:105760007F0748F0DC012D933C93DA01ED93FC9325
:1057700090E080E008958FEF9FEF0895AF92BF9281
:10578000CF92DF92EF92FF920F931F93CF93DF930D
:10579000009709F45FC04115510509F45BC06530FD
:1057A000710508F457C020910D08C7EFDFEF2223E1
:1057B00091F1DC01CD90DC9011971296ED91FC9166
:1057C00096012A5F3F4FC9EFDFEF2617370719F51C
:1057D000C0910E08D0910F08209749F521E030E0E4
:1057E00030930F0820930E087A018C01F093110872
:1057F000E09310085601B4E0AB0EB11CB50176DEA3
:105800000A0D1B1DF801208131818217930729F5AC
:10581000D701CD92DC92CE01DF91CF911F910F91F4
:10582000FF90EF90DF90CF90BF90AF9008952091C0
:105830001008309111082F5F3F4FCCEFDFEFE217D8
:10584000F30790F2CBEFDFEF2E173F0768F2D0E0BF
:10585000C0E0CACFCFEFDFEFDECFC3EFDFEFDBCFAC
:1058600084E090E0089582E090E008958CEF9FEF4F
:10587000089580E290E008951092130810921208A3
:10588000109211081092100810920F0810920E0832
:1058900090E080E008959093A8028093A702089575
:1058A00080910D08882391F0C5DD009789F410924E
:1058B00013081092120810921108109210081092FA
:1058C0000F0810920E0810920D08089590E080E0E5
:1058D0000895009749F06115710531F0FC011182BE
:1058E0001082FB01118210820895F3CF26E030E090
:1058F00040E855E260E070E090E080E000C0109287
:105900001508109214088930910508F03BC0FC017D
:105910008827E257F34D8F4F0C947039972CA12CA8
:10592000AA2CB32CBC2CC32CC62CC92CCF2C81E0A8
:1059300090E0909315088093140883E298E00C940B
:105940006D3682E090E0909315088093140880EC07
:1059500098E0F5CF84E090E09093150880931408C8
:105960008DE599E0ECCF88E090E090931508809366
:1059700014088AEF99E0E3CF80E190E09093150856
:1059800080931408089580E290E0F8CF80E490E0DE
:10599000F5CF80E890E090931508809314088091EB
:1059A0001408909115089160E9CF1F920F920FB6DD
:1059B0000F9211240BB60F922F933F934F935F9347
:1059C0006F937F938F939F93AF93BF93EF93FF93C7
:1059D00086E997EE9093250180932401BFD0FF9133
:1059E000EF91BF91AF919F918F917F916F915F9157
:1059F0004F913F912F910F900BBE0F900FBE0F90C4
:105A00001F90189586E997EE9093250180932401C5
:105A1000A3E7B0E08C918E7F8C93E0E2F1E080818F
:105A20008C7F8083E1E2F1E08081877E80838081CA
:105A30008460808380818C7F80838C9181608C9353
:105A40000895E3E7F0E0808190819E7F90838170EC
:105A5000089581E0089510921608089568EE73E0A5
:105A600080E090E035D690E080E0089526E030E0D8
:105A700040E052EC61E070E090E080E040DF83E2E3
:105A800098E00E94A335892B29F083E298E00E94D8
:105A9000BD35F5CF90E080E00895CF92DF92EF9290
:105AA000FF920F931F93CF93DF936B017A01E9016C
:105AB0001982188283E298E00E94A335892B79F13C
:105AC0008601CC24C39482E0D82E809116088111DF
:105AD00011C083E298E00E94BD350297B1F7C092F1
